:020000040800F2
:10000000B0BE0020A1010008754F00084F45000850
:10001000734F0008410E0008B55F000800000000A3
:100020000000000000000000000000003F55000834
:10003000770E000800000000974F0008FD570008E9
:10004000BB010008BB010008BB010008BB010008A0
:10005000BB010008BB010008BB010008BB01000890
:10006000810E0008870E00088D0E0008BB010008F5
:10007000BB010008BB010008BB010008BB01000870
:10008000BB010008BB010008BB010008BB01000860
:10009000BB010008BB010008BB010008930E00086B
:1000A000BB010008BB010008BB010008BB01000840
:1000B0000D5900080000000000000000BB0100080E
:1000C000BB010008BB010008BB010008BB01000820
:1000D000BB010008BB0100082D5F0008715F00082C
:1000E000790E0008BB0100080000000000000000BD
:1000F0000000000000000000000000000000000000
:1001000000000000BB01000800000000BB01000867
:1001100000000000000000001959000825590008DF
:10012000BB010008BB010008BB010008BB010008BF
:10013000BB010008000000000000000000000000FB
:10014000BB010008BB010008BB0100080000000063
:10015000BB010008BB010008BB010008BB0100088F
:10016000BB010008BB010008BB0100080000000043
:10017000BB010008BB0100080000000000000000F7
:10018000BB010008BB010008BB010008DFF80CD070
:1001900000F00AFB00480047A9D20008B0BE0020CA
:1001A0000648804706480047FEE7FEE7FEE7FEE711
:1001B000FEE7FEE7FEE7FEE7FEE7FEE7C9580008B8
:1001C0008D0100082DE9F05F0546002092469B4610
:1001D00088460646814640241BE02846414647465D
:1001E000224600F0F2F953465A46C01A914110D304
:1001F00011461846224600F0D9F92D1A67EB01087E
:100200004F4622460120002100F0D0F917EB0009EB
:100210004E41201EA4F10104DFDC484631462A4647
:10022000434600F000B830BCBDE8C09F40EA01037F
:100230009B0703D009E008C9121F08C0042AFAD29C
:1002400003E011F8013B00F8013B521EF9D2704760
:10025000D2B201E000F8012B491EFBD27047002208
:10026000F6E710B513460A4604461946FFF7F0FFB5
:10027000204610BD421E12F8013F002BFBD111F8A1
:10028000013B02F8013B002BF9D1704730B5054620
:100290002A460B4612F8010B13F8014B08B1A04295
:1002A000F8D01CB1002802D06D1CF1E7284630BD03
:1002B000421C10F8011B0029FBD1801A704730B591
:1002C00005460020034600E05B1C934205D2EC5C2F
:1002D000C85C201A01D1002CF6D130BD10B54843BE
:1002E00004460DF05DF9002805D00021002C02D055
:1002F000641E0155FAE710BD70B5064605F026FFED
:10030000046805460A220021304600F080F92C607E
:1003100070BD2DE9FE4F804681EA0300C00F0C46F8
:10032000009021F0004123F00045B8EB0200A94104
:1003300005D24046214690461C460B46024623F015
:100340000040104347D0270DC7F30A00C3F30A51FA
:100350000290401A019040286BDAC3F3130040F476
:10036000801B0098924620B10023D2EB030A63EB76
:100370000B0B01985946C0F14002504600F016F9A7
:1003800006460D4650465946019A00F02EF910EBEC
:1003900008006141002487EA115284EAE7731A4396
:1003A00040D0009A62B3019A012A4FEA075215DC45
:1003B000001B61EB02014FF0004202EA0752CDE957
:1003C0000042001C41F5801132462B4600F09DF999
:1003D00003B000F045B840462146F9E7001B61EB49
:1003E0000201001C41F5801300185B412018A2F5A2
:1003F000001747EB030140EAD570B6196D4111E0D3
:100400006D084FEA360645EAC0754FEA0752001BF1
:1004100061EB0201001C41F5801149084FEA3000F0
:100420000019514132462B4603B000F01CB800F0D1
:100430005DB90098012240000023D0EB020263EB7B
:10044000E073009821464FEAE074B8EB000061EBDE
:100450000401E9E783F000435BE781F0004158E7DE
:1004600030BCBDE8C08F30BCBDE8C04FFFF7DFBF78
:100470002DE9FE4F81EA030404F0004421F000411D
:1004800000944FF0000B23F0004350EA01045ED0CB
:1004900052EA03045BD0C3F30A54C1F30A552C4457
:1004A000A4F2F3340194A0FB0254C1F3130141F40C
:1004B0008011C3F3130343F4801301FB024400FBD8
:1004C000034E840A970A44EA815447EA8357A4FBFF
:1004D000076802958D0A05FB07854FEA932C04FBFC
:1004E0000C542705029D4FEA065847EA1637B5EB2C
:1004F00008056EEB070C870E920E47EA811742EA59
:100500008312A7FB0201B6EB0B0164EB00042B0D79
:1005100043EA0C335E1844EB1C50DA465146E7FBC5
:100520000201C5F313044FEA0B3343EA14534FEAB5
:100530000432019C43EA0603A4F10C040294009CDB
:10054000CDE900B400F0E1F803B000F003B80020FA
:100550000146F9E730BCBDE8C08F0EB540F233412B
:1005600002910021CDE900110A460B4600F0CDF8BA
:1005700003B000BD01F0004330B421F0004150EA67
:10058000010206D00A0DA2F56072C1F31301002A20
:1005900002DC30BC00207047440F44EAC104C100B3
:1005A000E01830BC00EBC25000F069B8202A04DB30
:1005B000203A00FA02F1002070479140C2F1200376
:1005C00020FA03F3194390407047202A04DB203AB5
:1005D00021FA02F00021704721FA02F3D040C2F163
:1005E00020029140084319467047202A06DBCB17AA
:1005F000203A41FA02F043EAE07306E041FA02F3DE
:10060000D040C2F1200291400843194670472DE9BD
:10061000F04791460F4680460446002614F8015BD9
:100620002DB100F0D3F80068405DC007F6D12B2D46
:1006300002D02D2D18D0641E4A463946204600F0BF
:10064000C9F827B13968A14201D1C7F80080710506
:100650004FF002040BD54042002803DD05F076FD83
:100660000460A007BDE8F08746F48066E4E7002850
:10067000F8DA05F06BFD04606FF00040F2E7002946
:10068000A8BF7047401C490008BF20F00100704718
:1006900010B4B0FA80FC00FA0CF050EA010404BF78
:1006A00010BC704749B1CCF1200421FA04F411FACE
:1006B0000CF118BF012121430843A3EB0C01CB1D12
:1006C0004FEA00614FEA102042BF002010BC704783
:1006D00000EBC35010440029A4BF10BC7047401C5D
:1006E000490008BF20F0010010BC704710B5141E6F
:1006F00073F1000408DA401C41F1000192185B41DB
:100700001A4301D120F0010010BD2DE9F04D9246B1
:100710009B4611B1B1FA81F202E0B0FA80F22032C8
:100720009046FFF743FF04460F4640EA0A0041EABD
:100730000B0153465A46084313D0114653EA0100B1
:1007400019D0C8F140025046FFF73FFF05460E465C
:10075000504659464246FFF729FF084305D001207D
:1007600004E020463946BDE8F08D0020054346EA06
:10077000E0762C4337430A986305E40AA0EB0800AF
:100780000022FD0A44EA47540A3002D500200146FF
:10079000E9E7010510196941DDE9084500196941DA
:1007A000BDE8F04DA2E70000064C074D06E0E0680A
:1007B00040F0010394E8070098471034AC42F6D3A8
:1007C000FFF7E8FCE4BA010804BB010800487047E1
:1007D00008BA01082DE9F05F824600780027154627
:1007E0008B460AF10104B946302801D09DB113E0CF
:1007F00014F8010B0127782803D0582801D045B1FF
:100800000AE00DB1102D07D10027102514F8010BB7
:1008100002E0082500E00A250026B0460EE005FBB0
:10082000080005FB06F1012701EB10461FFA80F8CE
:10083000B6F5803F00D3B94614F8010B294600F005
:100840001BF80028EBDABBF1000F05D00FB1641ED6
:1008500000E05446CBF80040B9F1000F06D005F097
:1008600075FC02210160C81E00F003B848EA06408A
:10087000FAE730BCBDE8C09F3A2800D2303820F0FB
:100880002002412A01D3A2F13700884201D34FF060
:10089000FF3070472DE9F041044600270D460068FF
:1008A00003F0A8FF0646206803F0A0FF304359D0AC
:1008B0002068C1682C4E890105D5617E012902D1CD
:1008C000217E01290BD0022D1DD0206803F092FF5C
:1008D000B8B120688168C1F3400169B111E0012518
:1008E000224902E08F422ED27F1C0268D243520678
:1008F000F8D440210160E8E78168314041F01001FF
:100900008160012D11D0206803F070FF48B120688C
:100910008168C1F3400121B98168314041F0200173
:100920008160022D08D0032D04D0042501F000FBC6
:10093000064613E00C25F9E70825F7E701F0F8FA79
:10094000801B05280AD9606D40F010006065A06D1D
:1009500040F00100A0650120BDE8F08120688068BA
:100960002842EBD10020F7E7C0FFFF7F000040A343
:1009700070B50446006881688268C1F3400112F0D6
:10098000010F24D019BB816801F00D01012910D19C
:100990008168104A1140891C816021680320086029
:1009A00001F0C6FA05460EE001F0C2FA401B02282B
:1009B00009D9606D40F010006065A06D40F0010045
:1009C000A065012070BD20688068C007ECD10020C0
:1009D00070BD0000C0FFFF7F70B5044600688168ED
:1009E00011F0010F28D18168144A114215D1816894
:1009F000D5432940491C816001F09AFA064616E069
:100A0000816811F0010F03D181682940491C816080
:100A100001F08EFA801B022809D9606D40F01000A9
:100A20006065A06D40F00100A065012070BD2068E8
:100A30000168C943C907E3D1002070BD3F000080B1
:100A400010B55A213A2000F0ABF90021232000F024
:100A5000A7F9E021242000F0A3F90021252000F0CF
:100A60009FF90821262000F09BF90221272000F0A1
:100A700097F90221282000F093F91021292000F095
:100A80008FF910212A2000F08BF904212B2000F08F
:100A900087F900212D2000F083F90021BDE81040E6
:100AA0003A2000F07DB910B5FFF7CAFF41F2883057
:100AB00010F0ACFE5A213A2000F072F900212120FA
:100AC00000F06EF90021222000F06AF900212C20AC
:100AD00000F066F9E021242000F062F902212020D4
:100AE00000F05EF90821002000F05AF906210120EB
:100AF00000F056F90621022000F052F904210320EB
:100B000000F04EF90421084600F04AF904210520BE
:100B100000F046F90421062000F042F90A210720DE
:100B200000F03EF90421082000F03AF904210920E0
:100B300000F036F904210A2000F032F902210B20DE
:100B400000F02EF902210C2000F02AF9FF210D20DF
:100B500000F026F9FF210E2000F022F9FF210F20DE
:100B600000F01EF90021BDE810403A2000F018B94D
:100B7000FFF799BF70B50D4604465A213A2000F0A0
:100B80000FF92146232000F00BF92946242000F01C
:100B900007F9BDE8704000213A2000F001B90000DB
:100BA0001FB54FF47A73012203A98DE80E00134696
:100BB0000246AF21034801F01BFB9DF80C0004B076
:100BC00010BD0000540D00202DE9F0413420FFF746
:100BD000E7FF07463520FFF7E3FF2E4D012605F11D
:100BE00002088FB35FF0000427FA04F0C0072CD08E
:100BF000012F07D0002010F031FB08EB04002E700D
:100C0000407834E0244C01221021204601F08AF97A
:100C1000EF2010F023FB4FF4FA6010F0F7FD0420F2
:100C200010F01CFB1D4810F0F1FD1D480068007A13
:100C300010F014FB00221021204601F073F9154832
:100C4000401E0670BDE8F08104E0641CE4B2082C8C
:100C5000CAD3F7E790B1002420FA04F1C90708D0FD
:100C6000002010F0FBFA08EB04002E70407A687048
:100C7000E8E7641CE4B2082CEED3E3E74FF4B0736A
:100C8000084A09A110A005F03DFABDE8F04112A004
:100C900005F038BA490000200004004800350C0077
:100CA00094000020015D01082E2E5C557365725C76
:100CB000447269766572735C7372635C61707438D8
:100CC0006C31362E630000005B25733A20202573BB
:100CD0003A2025645D2000006B657920756E707286
:100CE000657373200D0A000010B55A213A2000F0F8
:100CF00057F80221212000F053F80021232000F0B2
:100D00004FF8E021242000F04BF80121202000F0D2
:100D100047F80421002000F043F80721012000F0EB
:100D20003FF80421022000F03BF80421032000F0EA
:100D300037F80421084600F033F80321052000F0BD
:100D40002FF80421062000F02BF80621072000F0E0
:100D500027F80321082000F023F80221092000F0E1
:100D60001FF802210A2000F01BF802210B2000F0DE
:100D700017F803210C2000F013F8FF210D2000F0DC
:100D80000FF8FF210E2000F00BF8FF210F2000F0DC
:100D900007F80021BDE810403A2000F001B800003B
:100DA000F3B583B00746012504AE64200096CDE973
:100DB00001502B463A46AE210D4801F0CFFA04000F
:100DC00013D00A200096CDE9015001233A46AE2106
:100DD000074801F0C3FA9D23064A07A10EA005F0BB
:100DE00091F9214610A005F08DF905B0F0BD000085
:100DF000540D0020F05C01082E2E5C557365725C6A
:100E0000447269766572735C7372635C6170743886
:100E10006C31362E630000005B25733A2020257369
:100E20003A2025645D200000777269746520666150
:100E3000696C65642025640D0A0000000DF052B84D
:100E4000FEE770B5002404F1B000C0B205F0FAF876
:100E5000102005F0F7F8022005F0F4F80025002036
:100E600005F002F96D1CEDB2802DF8D3641CE4B2DC
:100E7000082CE8D370BD70474FF4805000F07ABF63
:100E8000042000F077BF082000F074BF102000F0AD
:100E900071BF4FF4007000F06DBF0000124A117F67
:100EA0001248012901D003290BD1036843F40063E0
:100EB0000360036823F400630360036843F4007372
:100EC0000360022901D003290BD1016841F480514C
:100ED0000160016821F480510160016841F4806182
:100EE000016000201077704724000020002002409D
:100EF000C107054803D0416941F0040141614169DE
:100F000041F48031416170470020024006494A693E
:100F100060F3CA024A61486940F0020048614869CA
:100F200040F480304861704700200240044910B509
:100F30004C6944F001044C610260436010BD000044
:100F400000200240074B10B55C69402244F4802425
:100F50005C6172B608C908C0521E12F0FF02F9D1D6
:100F600062B610BD0020024070B5054600F0E0FFFB
:100F70000646174C08E0681C06D000F0D9FF801B1D
:100F8000A84201D3032070BD2069C003F3D42169B6
:100F900010480140A06900F00040084311D00E49FC
:100FA0004A6802434A60810F04D0A16900F04042C0
:100FB0001143A161810002D020F040402061012056
:100FC00070BD2069C00701D001202061002070BDE4
:100FD00000200240FAC30200240000200D4910B591
:100FE00009684FF6FF734FF48014994201D12246ED
:100FF00001E00A05920A02F10062824204D900BFB0
:10100000A0F10060C00A10BD994201D009058C0A08
:10101000001BF5E7E075FF1F2DE9F84F0027044698
:10102000009790F85000DFF8B0930D46B8460128BD
:1010300011D0012684F85060206803F0DBFB60B11A
:10104000606D40F0200060655FF0010784F850801B
:10105000384600F0D7B90220FBE768680C23052862
:1010600012D8022807D0032807D0042807D0052863
:1010700007D0062007E06B6006E0122003E018208E
:1010800001E04FF480706860D5E9002103EA911314
:10109000206801F01F0118444FF01F0C0CFA01FCEE
:1010A000036BC2F3846223EA0C038A401343036395
:1010B000206803F09FFB8246206803F097FB5AEA02
:1010C00000001DD1AA682968206803F09FFB2068F2
:1010D0006969C268C2F3C102520091402A69042AB8
:1010E0000FD000EB82002B68DFF8F0C2026E03F035
:1010F000F84302EA0C020B431A4342F00041016636
:1011000072E0002103F06CFB400320684FF0000107
:1011100072D003F065FB90FAA0F0B0FA80F1286875
:1011200042036ED090FAA0F0B0FA80F0814204D170
:1011300000221146206803F078FB0121206803F0AB
:101140004FFB400320684FF001015DD003F048FBE6
:1011500090FAA0F0B0FA80F12868420359D090FAD2
:10116000A0F0B0FA80F0814204D100220121206871
:1011700003F05BFB0221206803F032FB4003206890
:101180004FF0020148D003F02BFB90FAA0F0B0FA28
:1011900080F12868420344D090FAA0F0B0FA80F0C1
:1011A000814204D100220221206803F03EFB03218A
:1011B000206803F015FB400320684FF0030133D093
:1011C00003F00EFB90FAA0F0B0FA80F12868420319
:1011D0002FD090FAA0F0B0FA80F0814204D1002222
:1011E0000321206803F021FB2068816811F0010FC2
:1011F00022D0ACE000E004E003F0F2FAC0F3846136
:101200008DE7C0F3846091E703F0EAFAC0F38461EC
:10121000A2E7C0F38460A6E703F0E2FAC0F38461BA
:10122000B7E7C0F38460BBE703F0DAFAC0F3846188
:10123000CCE7C0F38460D0E72A7B296850F8B03F40
:10124000C1F3120C23EA0C0302F0180C644A22FAD0
:101250000CF20A4013430360E968494577D12868D6
:1012600041031CD090FAA0F1B1FA81F1491C01F0C0
:101270001F0109294FEA403132D8002912D000BF9E
:1012800090FAA0F1B1FA81F101F1010101F01F0121
:1012900006FA01F609D100BFC0F3846109E0C0F38A
:1012A0008461E3E7C0F38461EEE790FAA0F1B1FA5C
:1012B00081F101F1010101F01F0146EA816102D1D2
:1012C000C0F3846003E090FAA0F0B0FA80F000F17F
:1012D000010000F01F0000EB400041EA005132E045
:1012E00000290ED090FAA0F1B1FA81F101F10101CB
:1012F00001F01F0106FA01F606D100BFC0F38461B8
:1013000006E0C0F38461F1E790FAA0F1B1FA81F14F
:1013100001F1010101F01F0146EA816102D1C0F330
:10132000846003E090FAA0F0B0FA80F000F10100D0
:1013300000F01F002B4A00EB400002EB005041EA96
:10134000000141F00071AA68206803F05FFA2648A6
:101350002A6802423FF47AAE24488168244D254B26
:1013600001F0E071AA421AD10D0218D422689A4203
:101370007FF46CAE826841F4000122F0E0720A430F
:1013800082601D481D490068B0FBF1F000EB400091
:10139000800000E0401E00900028FBD156E6184D6A
:1013A000AA4207D1CD0105D422689A42F6D141F074
:1013B00080710AE06FF00045EA42EFD14A02EDD4B5
:1013C00022689A42EAD141F48001826822F0E072F8
:1013D0000A4382603AE6000000007F4000F0FF030D
:1013E000FFFF0700000020FE0000088000030450FB
:1013F000000052C70000045044000020400D0300CC
:10140000000084CB18BCBDE8E08F406D70470068D9
:10141000006C7047F8B54FF0000504002E460095AB
:1014200002D0606D10B107E00120F8BD204600F049
:10143000C7F8A66584F8506020688168C1F34071E0
:1014400019B18168564A1140816020688168C1F3F2
:10145000007179B98168534A114041F0805181602F
:10146000514852490068B0FBF1F000E0401E009086
:101470000028FBD120688168C1F3007141B9616D1A
:1014800041F010016165A16D41F00101A1650125E7
:1014900003F0B0F9616DC90600D430B1606D40F061
:1014A0001000606501252846F8BD606D20F480704D
:1014B00040F0020060652068806810F0010F0BD1D9
:1014C0003B48806810F0010F06D13A486168826895
:1014D00022F47C120A438260E168606B627E0843FA
:1014E000A16841EA4231084394F8201040EA0140E3
:1014F000012904D1A18C304A02EB41410843A16A81
:1015000029B101F47071E26A014342EA01002168E5
:10151000CA682A4B1A400243CA60206803F06AF97D
:101520000646206803F062F9304315D1207E94F816
:101530003010800340EA41022068C16844F202038F
:1015400099431143C16094F8380001280CD02068F9
:10155000016921F001010161206901282068016B06
:1015600021F00F0111D013E0D4E90F010843D4E9B1
:1015700011121143084321680A6940F2FC739A432F
:10158000104340F001000861E6E7E269521E114392
:101590000163606D20F0020040F00100606582E7A9
:1015A000C0FFFF5FC0FFFF7F44000020400D03002D
:1015B00000000450000304500000FEFF07C0F0FFCD
:1015C00000B500680C4987B0884212D10B48C16C45
:1015D00041F40051C164C06C694600F400500590AC
:1015E000082000900B20019000200290044800F099
:1015F000CDFB07B000BD0000000004500010024009
:10160000000800482DE9F041044640690D460828CD
:101610000AD02068C068C00708D0606D40F0200084
:1016200060650120BDE8F081082600E0042600F096
:101630007FFC074607E0681C05D000F079FCC01B62
:10164000A8420FD875B1206800683042F3D0606DB1
:1016500040F400706065206803F0D0F8D0B1607E7F
:1016600048B117E0606D40F004006065002084F828
:1016700050000320D6E72068006800070AD5606D97
:1016800020F480706065606DC00403D4606D40F02C
:10169000010060652068C168082E05D0490401D4A6
:1016A0000C2101600020BDE70821FAE710B50446CF
:1016B000006803F09FF810B10221084610BD94F8AD
:1016C000500001280CD0012084F850002046FFF77C
:1016D00083F901004FF0000004D084F85000ECE7DB
:1016E000022010BD626D40F601639A4342F480729D
:1016F0006265626DD20404D5A26D22F00602A26575
:1017000000E0A06523681C221A6084F8500020685D
:10171000C268920105D5626D22F4005242F48052F3
:1017200062658268024B1A40121D8260C5E70000A4
:10173000C0FFFF7F10B5044690F85000012808D084
:10174000012084F8500003212046FFF7A3F810B1D0
:101750000BE0022010BD2046FFF70AF928B9616DA1
:1017600021F4885141F001016165002184F8501095
:1017700010BD10B590F825100024022903D00421D3
:10178000C16301241AE001680A6822F00E020A60AF
:1017900001680A6822F001020A6090F84410036CA4
:1017A00001F01C02012101FA02F25A6080F82510B2
:1017B000002180F82410816B01B18847204610BDBC
:1017C0002DE9F05F054634488946017801290CD09F
:1017D0000127804607704CF2503B5846FFF7C4FB88
:1017E00006004FF0000A03D052E0022000F058B883
:1017F00051464046C8F804A0284C226892050ED5F0
:10180000216821F4007121602168490505D521680E
:1018100021F480612160032109E0077708E0226854
:10182000520504D5216821F48061216002210177ED
:101830002868012807D04FF0FF31C9F8001040F2A6
:10184000FA7BAF681DE06868FFF752FB5846FFF768
:101850008BFB0646606920F00400606116E03846A4
:101860006968FFF753FB4CF25030FFF77DFB060031
:10187000606920EA0B00606102D0C9F8007005E0E1
:101880007F1CD5E902010844B842E8D8FFF706FBFF
:1018900088F800A03046A9E724000020002002407C
:1018A00030BCBDE8C09F00000348416941F00041E1
:1018B0004161002070470000002002402DE9FF5FD9
:1018C000254C0646904620789A4601280BD00120E8
:1018D00020704CF2503B5846FFF746FB07004FF094
:1018E000000904D02AE0022004B000F039B84846CC
:1018F000C4F80490194D2968490504D5286820F4D6
:10190000806028600220207726B1012E09D0022EA7
:1019100007D00CE0424653460198FFF707FB01262B
:1019200012E041460198FFF70DFB022E0AD05846FF
:10193000FFF71AFB4FEA0007FFF7B0FA84F80090B0
:101940003846D1E74FF480265846FFF70DFB07468F
:101950006869B0436861EFE724000020002002407E
:1019600030BCBDE8C09F0000064900204A69002A3B
:1019700007DA054A8A60054A8A604969002900DA5F
:10198000012070470020024023016745AB89EFCD5D
:101990002DE9F04F002301270F24DFF8F8A073E0B2
:1019A00007FA03F616EA01026DD005684FEA43080C
:1019B0004FF0030C0CFA08FC45EA0C050560DD0845
:1019C00000EB8508C346D8F820905D074FEAD5683C
:1019D00004FA08F529EA0509CBF82090856825EA7C
:1019E0000C0585604568B5434560C56825EA0C056A
:1019F000C56023F0030606EB0A05D5F808C09E076C
:101A0000360F04FA06F909EA0C08B0F1904F06D037
:101A1000DFF884C0604505D14FF0010C19E04FF0AC
:101A2000000C16E0DFF874C0604502D14FF0020CE4
:101A30000FE0DFF86CC0604502D14FF0030C08E006
:101A4000DFF860C0604502D14FF0040C01E04FF0B8
:101A5000070C0CFA06FCC44515D1D5F808C02CEAD1
:101A6000090CC5F808C0104E356895433560361D21
:101A7000356895433560351D2E6896432E602D1DC3
:101A80002E6896432E605B1C31FA03F288D100F079
:101A90000DB80000000001400004004800080048A4
:101AA000000C0048001000480004014030BCBDE8B4
:101AB000C08F00002DE9F047654C0646052560798A
:101AC0004FF0000920B184F80590304603F038FD4E
:101AD000042E20D0082E48D05E4F0125102E52D063
:101AE000B6F5007F7AD0B6F5805F78D160780028AF
:101AF00075D13868007A0FF0B1FB4FF4E973564A9C
:101B000056A15AA004F0FEFA5CA004F0FBFABDE86E
:101B1000F04704F0D5BF40F291134F4A4FA153A0B4
:101B200004F0F0FA60A004F0EDFA6A4C6A4E204628
:101B30000FF06CFE6D1EEDB20421304600F0EDF9A1
:101B400080B1002D4BD100BF08F0A4FD40F29913E5
:101B5000414A42A145A004F0D5FABDE8F0475FA094
:101B600004F0D0BA002DE2D1EEE74FF4CF733A4A39
:101B70003AA13EA004F0C6FA63A004F0C3FABDE89F
:101B8000F047FFF721B80A2000F09CFD42F21070E8
:101B90000FF03CFE10214FF0904000F0BEF90646D9
:101BA0004FF4D3732C4A2DA130A004F0ABFA314688
:101BB0005FA004F0A7FA4FF4FA688EB184F802909F
:101BC000FE200FF04BFB40460FF020FE3868007AF5
:101BD0000FF044FB40460FF019FE1FE026E035E011
:101BE0003868A1790088084318D012F03DFCEF2036
:101BF0000FF034FB40460FF009FE03200FF02EFBE0
:101C000040460FF003FEF2200FF028FB40460FF095
:101C1000FDFD2571A570E57013F0E6FA4D49102021
:101C20000860BDE8F0470A2000F057BD40F2C3133A
:101C3000094A0AA10DA004F065FA47A004F062FA6F
:101C400025700AF01DFA05200FF008FBBDE8F087AB
:101C50000000002094000020735C01082E2E2F53FA
:101C600072632F6D61696E2E630000005B25733A0D
:101C7000202025733A2025645D20000020232323A3
:101C80002323232323232323232323232323232027
:101C9000646574656374204E464320697320636FE6
:101CA0006D696E67200D0A0020232323232323233D
:101CB0002323232323232323232020524553544F1C
:101CC000524520696E746572727570742E2E2E20C6
:101CD0000D0A000040420F00000C0048202323237F
:101CE000232323232323232323232323232020727B
:101CF0006573746F726520666163746F72792E2EDE
:101D00002E200D0A00000000202323232323232359
:101D100023232323232323232320204150542069DA
:101D20006E746572727570742E2E2E200D0A00006E
:101D30002023232323232323232323232323232376
:101D4000232323207072795374617475733A256468
:101D5000200D0A00140401406465746563742066F4
:101D6000696E676572206973207072657373200DE8
:101D70000A000000044910B50A68024202D0086057
:101D8000FFF798FE10BD0000140401402DE9F84F44
:101D9000DFF864B100234FF0010C4FF0030A4FF05D
:101DA0000F090BF1040EA0E00CFA03F6324072D0DA
:101DB0004C68022C01D0122C0ED1DC0800EB8408F8
:101DC000D8F820405D07EF0E09FA07F5AC430D691E
:101DD000BD402543C8F8205007685D0091F8048095
:101DE0000AFA05F408F00308A74308FA05F848EAD8
:101DF0000708C0F800804F68012F05D0022F03D0DC
:101E0000112F01D0122F11D18768D1F80C80A74370
:101E100008FA05F848EA0708C0F808804768B74399
:101E20000E79C6F300169E403E434660C668A64340
:101E30008C68AC403443C4604C68E40054D52F4CEB
:101E4000256E45F001052566246E23F0030504F098
:101E5000010400942A4C2E19B4689D072F0F09FA2B
:101E600007F5AC43B0F1904F04D0264DA84203D102
:101E7000012512E0002510E0234DA84201D10225E2
:101E80000BE0224DA84201D1032506E0204DA842D7
:101E900002D1042501E027E00725BD402543B560B8
:101EA000DBF800405D464E689443F60300D51443CA
:101EB0002C60DEF8004075464E689443B60300D5AA
:101EC00014432C600C4D08352C684E689443F60280
:101ED00000D514432C60084D0C352C684E68944393
:101EE000B60200D514432C605B1C0A6832FA03F476
:101EF0007FF45AAF00F00EB8000401400010024019
:101F0000000001400004004800080048000C0048A0
:101F10000010004818BCBDE8E08F0069084000D000
:101F2000012070470AB181617047816270470000EB
:101F300001480068704700002000002090F8412010
:101F4000202A24D190F84020012A20D0012280F8B4
:101F50004020242280F841200268136823F0010306
:101F600013600268136823F48053136002681368D7
:101F70000B43136001680A6842F001020A602021E5
:101F800080F84110002180F8401008467047022078
:101F9000704790F84120202A22D190F84020012A51
:101FA0001ED0012280F84020242280F841200268BF
:101FB000136823F0010313600268136823F470634D
:101FC00043EA0121116001680A6842F001020A60D7
:101FD000202180F84110002180F840100846704709
:101FE00002207047074908B50A6E42F001020A66EE
:101FF000096E01F00101009103494A6802434A60F9
:1020000008BD0000001002400000014070B504004F
:1020100004D094F84100002510B106E0012070BD05
:1020200084F84050204600F06BFA242084F84100E8
:102030002068016821F0010101606068216820F0DA
:10204000706008612068816821F400418160E06867
:102050000128A06807D040F4044021688860E06847
:10206000022803D006E040F40040F6E721684FF470
:102070000060486020684168114A1143416020684F
:10208000C16821F40041C160D4E904010843A16999
:1020900040EA01202168C860D4E9070108432168AB
:1020A00008602068016841F001010160656420203A
:1020B00084F84100256384F84250002070BD000080
:1020C000008000022DE9F84F044690F84100DDF849
:1020D00028A01F4690468B4620287ED194F84000C9
:1020E00001287AD0012084F84000FFF721FF06463E
:1020F000012200901923D103204602F0F7FAE0BB39
:10210000212084F84100102084F8420000256564F5
:10211000C4F8248067856563618D3148FF274FF0DF
:1021200080784FF00079FF2903D927853A4600903F
:1021300039E0618D218500903AE05946204602F051
:10214000BFFA13E002F024FBB8B9606A2168007896
:102150008862606A401C6062608D401E6085208DD0
:10216000401E80B22085618D01B168B1608D32461C
:10217000002851462046E5D100E002E002F0E2FAF4
:10218000D0B1012000F030B8534600228021204613
:10219000009602F0ABFA0028F3D1608DFF2804D935
:1021A00027853A4600954346C7E7608D2085009510
:1021B00094F828204B46C0E721682020C861216898
:1021C0004A68084B1A404A6084F8410084F842503B
:1021D00084F840500020D5E7FFE70220D2E7000056
:1021E0000020008000E800FE18BCBDE8E08F000081
:1021F0002DE9FF4F83B00446DDE9108790F84100D8
:10220000DDF848909A469346202874D15FEA08008A
:1022100014D09FB194F8400001286CD0012084F8BC
:102220004000FFF785FE0646012200901923D103E6
:10223000204602F05BFA002871D103E04FF40070F1
:1022400060646CE0222084F84100402084F8420061
:1022500000256564C4F8248067856563CDE9009630
:1022600053465A462046049902F0C6F910B184F844
:10227000405054E0618D3548FF274FF080784FF093
:10228000007AFF2904D927853A464346009005E0A5
:10229000618D2185009094F82820534620460499AA
:1022A00002F00EFA4B46002204212046009602F06E
:1022B0001DFAA0BB2068406A616A0870606A401C11
:1022C0006062208D401E81B22185608D401E608538
:1022D000608DD8B1D1B94B460022802120460096AE
:1022E00002F004FAD8B9608DFF2805D927853A464F
:1022F0004346009506E026E0608D2085009594F821
:10230000282053462046049902F0DAF9608D00280F
:10231000C8D132464946204602F014FA18B10120CD
:1023200007B000F017B821682020C86121684A680A
:10233000074B1A404A6084F8410084F8425084F800
:1023400040500020ECE70220EAE700000024008073
:1023500000E800FE30BCBDE8C08F00002DE9FF4F53
:1023600083B00446DDE9108790F84100DDF848901D
:102370009A469346202871D15FEA080014D09FB195
:1023800094F84000012869D0012084F84000FFF74C
:10239000CFFD0646012200901923D103204602F00A
:1023A000A5F900286ED103E04FF40070606469E085
:1023B000212084F84100402084F842000025656413
:1023C000C4F8248067856563CDE9009653465A4674
:1023D0002046049902F042F910B184F8405051E0CF
:1023E000608DFF274FF080784FF0007AFF2804D9E6
:1023F00027853A464346009505E0608D2085009587
:1024000094F8282053462046049902F059F93246A0
:102410004946204602F0BCF9A0BB606A21680078FA
:102420008862606A401C6062608D401E6085208DFD
:10243000401E80B22085618DD9B1D0B94B460022B3
:1024400080212046009602F051F9D8B9608DFF280E
:1024500005D927853A464346009506E026E0608D7B
:102460002085009594F8282053462046049902F0D0
:1024700027F9608D0028CAD132464946204602F02D
:1024800061F918B1012007B000F014B820682021CC
:10249000C16120684268064B1A40426084F84110CE
:1024A00084F8425084F840500020ECE70220EAE72C
:1024B00000E800FE30BCBDE8C08F00000C4A016897
:1024C0000C48914208D1816D21F4001181654FF4CF
:1024D000C0614FF0904008E0074A914207D1816DFA
:1024E00021F40001816503210448FFF751BA7047C8
:1024F0000054004000100240005C0040000800480A
:1025000070B5194E05681221012203200423174CCF
:1025100086B0B54212D145020095CDE90112CDE950
:10252000030369464FF09040FFF730FCA06D40F484
:102530000010A065A06D00F4001011E00C4EB54233
:102540000FD18DE80700CDE9030369460948FFF77D
:102550001DFCA06D40F40000A065A06D00F400001B
:10256000059006B070BD000000540040001002400D
:10257000005C00400008004870B5040011D02168DC
:102580004CF6CC400860216845F255500860D4E90B
:10259000000141602168A0688860FFF7C9FC05461A
:1025A00009E0012070BD00BFFFF7C2FC401B3028CE
:1025B00001D9032070BD2068C0680028F4D12068CC
:1025C0000269E1688A4201D0016102E04AF6AA216B
:1025D0000160002070BD00684AF6AA210160002059
:1025E0007047000002480168491C01607047000004
:1025F0002000002010B50024032000F099F80020EE
:1026000000F008F808B1012401E000F01BF82046B2
:1026100010BD000070B5054609484FF47A710024DA
:102620000068B0FBF1F001F0BAFA08B1012404E04F
:1026300000222946501E00F05BF8204670BD0000C5
:10264000440000201E4808B5016E41F001010166FA
:10265000016E01F001010091816D41F080518165B1
:10266000806D00F080500090032000F061F800229F
:1026700011466FF00B0000F03BF8002211466FF09E
:102680000A0000F035F8002211466FF0090000F052
:102690002FF800221146501F00F02AF800221146A0
:1026A000101F00F025F800221146901E00F020F8BF
:1026B0000022BDE808401146501E00F019B8000085
:1026C0000010024000F01F020121914040098000EB
:1026D00000F1E020C0F88011704700F01F020121D6
:1026E00091404009800000F1E020C0F800117047DF
:1026F000F0B40E4B1B680C46C3F30223C3F107056D
:10270000042D00D90425191D072901D2002300E05A
:10271000DB1E012606FA05F1491E214099409E4024
:10272000761E16403143F0BC02F025BC0CED00E0F3
:10273000064900F0070208684FF6FF03184040EA18
:102740000220034A10430860704700000CED00E0CF
:102750000000FA051649B0F5007F0868C0F3412073
:1027600009D0022805D0086820F4C06040F48060D9
:102770000860002070470128FBD0086820F4C06082
:1027800040F4007008600B483222006850430A4A47
:10279000B0FBF2F0401C00E0401E4A69520501D532
:1027A0000028F9D148694005E3D5032070470000AF
:1027B000007000404400002040420F000B490A68AE
:1027C00022F00702921C0A6009490A6842F00402DA
:1027D0000A60012807D040BF20BF20BF086820F052
:1027E00004000860704730BFF8E700000070004048
:1027F00010ED00E00248006800F4C060704700007F
:10280000007000400248016841F480710160704727
:10281000007000400248016841F004010160704707
:10282000001002402DE9F84F044600270088A84D0B
:102830003E46000515D5606C60B1B0F5000F04D0C0
:10284000B0F5400F2BD001270AE0E86840F4803053
:10285000E86024E00021201D02F09EFB07001ED04E
:102860003E46206880033AD5A86D4FF00008C000AE
:1028700009D4A86D40F08050A865A86D4FF00108FC
:1028800000F080500090DFF84CA2DAF8001041F41C
:102890008071CAF80010FFF74BFB814610E0D5F8B5
:1028A0008800616C20F440000843C5F88800D8E730
:1028B000FFF73EFBA0EB0900022801D9032705E042
:1028C000DAF80000C005F3D5002F7DD04FEA0706E7
:1028D000B8F1000F03D0A86D20F08050A8652078D3
:1028E000C00707D0D5F88800216A20F0030008430C
:1028F000C5F888002078800707D5D5F88800616A78
:1029000020F00C000843C5F888002078400707D560
:10291000D5F88800A16A20F030000843C5F8880087
:102920002078800607D5D5F88800E16A20F4406059
:102930000843C5F888002088800507D5D5F88800A9
:10294000E16B20F440200843C5F88800208840054A
:1029500007D5D5F88800216C20F440100843C5F84D
:1029600088002078400607D5D5F88800216B20F430
:1029700040500843C5F888002078000607D5D5F8F0
:102980008800616B20F440400843C5F88800208827
:10299000C00507D5D5F88800A16B20F44030084366
:1029A000C5F8880020684FF0006700034FF080688A
:1029B00050D5D5F88800A16C20F040600843C5F8D8
:1029C0008800A06CB84200E005E03BD1E86840F424
:1029D0008010E8603EE0D5F8900010F4407014D00C
:1029E000A16D814211D0D5F89000D5F8901020F457
:1029F000407041F48031C5F89010D5F8901021F462
:102A00008031C5F89010C5F89000C00711D0FFF7CD
:102A10008FFA074641F2883907E000BFFFF788FACE
:102A2000C11B494501D9032652E7D5F8900080071C
:102A3000F4D5D5F89000A16D20F440700843C5F896
:102A4000900045E7404505D10121201D02F0A4FA80
:102A500000B106462068400317D5D5F88800E16C20
:102A600020F040600843C5F88800E06CB84204D10B
:102A7000E86840F48010E86007E0404505D1012196
:102A8000201D02F089FA00B106462088400411D5C5
:102A9000D5F88800216D20F040500843C5F8880023
:102AA000206DB0F1805F05D10221201D02F074FA83
:102AB00000B106462088000406D555F8880F616DE0
:102AC00020F0804008432860304600F005B8000040
:102AD000001002400070004018BCBDE8E08F00000C
:102AE0002DE9F0470F46050058D03F4E306800F002
:102AF0000700B84209D2306820F007003843306040
:102B0000306800F00700B84248D12878374CC00739
:102B10002CD06868032811D0022812D0216898B1FF
:102B2000490500293ADAA16821F003010143A160B7
:102B3000FFF7FEF9804641F2883910E021688901EB
:102B4000EFE721688903ECE78907EAE7FFF7F0F987
:102B5000A0EB0801494502D90320BDE8F087A06831
:102B6000696800F00C00B0EB810FEFD12878800786
:102B700005D5A068A96820F0F0000843A06030687F
:102B800000F00700B8420BD9306820F00700384346
:102B90003060306800F00700B84201D00120DCE767
:102BA0002878400705D5A068E96820F4E06008436C
:102BB000A0602878000706D5A068296920F4605035
:102BC00040EAC100A06000F0D3F8A168084AC1F350
:102BD0000311515C01F01F01C84006490860BDE8BF
:102BE000F0470020FFF716BD002002400010024011
:102BF000A85C0108440000200F2202600C4A936880
:102C000003F003034360936803F0F0038360936869
:102C100003F4E063C36092684FF4E06303EAD20216
:102C200002610448006800F0070008607047000077
:102C30000010024000200240014800687047000078
:102C40004400002010B53F21016036490A68530353
:102C50004FF0000202D54FF4A02304E00B68DB0321
:102C600003D54FF48033436000E042600B68DC071B
:102C70004FF0010301D0836100E082614C68C4F32E
:102C80000724C4610C6804F0F00404620C68E405D5
:102C900003D54FF48074C46000E0C2604C68C4F394
:102CA00004640461D1F89040640702D5052484606F
:102CB00006E0D1F89040E40701D0836000E0826034
:102CC000D1F89440E40701D0436100E04261D1F8BB
:102CD0009840E40701D0436200E042620A68D201F2
:102CE00002D50222826200E08362CA6802F0030217
:102CF000C262CA68C2F30212521C0263CA68C2F3FB
:102D000006224263CA68C2F34152521C5200C26397
:102D1000CA68C2F34162521C52000264C968C90EFB
:102D2000816310BD001002400548064900688968AB
:102D3000054AC1F30221515C01F01F01C8407047F0
:102D40004400002000100240E85C010805480649E4
:102D500000688968054AC1F3C221515C01F01F0176
:102D6000C84070474400002000100240E85C0108A1
:102D700070B52549002318468A68CC6812F00C0209
:102D800004F00306214C4FEA640509D00C2A05D053
:102D9000042A26D0082A00D1284670BD012E10D161
:102DA0000B681B0704D4D1F89430C3F3032302E06B
:102DB0000B68C3F30313164E56F823307AB10C2A6E
:102DC000EBD1C86800F00302C868C0F30210401CD1
:102DD000022A08D0032A09D0B3FBF0F008E0184615
:102DE00070BD204670BDB4FBF0F001E0B5FBF0F023
:102DF000CA68C968C2F306225043C1F34161491C45
:102E00004900B0FBF1F070BD001002400024F40056
:102E1000B85C01082DE9F84305007CD0FD4CA068A2
:102E200000F00C06E06800F003072878C00662D5C1
:102E300076B10C2E01D1012F0AD0A8690028206894
:102E400078D040F001002060FFF772F8804659E02A
:102E50002068800702D5A8690028DED0296A20688A
:102E6000000703D5206800F0F00004E0D4F89400D7
:102E7000F02202EA1010814216D9084602F022F927
:102E8000002848D1206840F0080020602068296AA6
:102E900020F0F000084320606068E96920F47F407A
:102EA00040EA0120606015E0206840F008002060E2
:102EB0002068296A20F0F000084320606068E96912
:102EC00020F47F4040EA01206060286A02F0FAF8AE
:102ED0000028D6D1FFF74CFFA168CF4AC1F30311F8
:102EE000515C01F01F01C840CC4908600020FFF789
:102EF00091FB00287ED12EE0FFF71AF8A0EB080026
:102F0000022878D820688007F6D5206840F00800AD
:102F10002060206801E0BBE00CE0296A20F0F000AE
:102F2000084320606068E96920F47F4040EA01209E
:102F3000606010E020F001002060FEF7F9FF80469D
:102F400006E000BFFEF7F4FFA0EB08000228D8D887
:102F500020688007F6D42878C00740D0082E18D003
:102F60000C2E01D1032F14D06868B0F5803F17D024
:102F7000B0F5A02F206817D020F4803020602068A2
:102F800020F4802020606868E0B1FEF7D1FF804621
:102F900014E02068800322D56868002878D01EE0FD
:102FA000206840F48030EDE740F480202060F7E7AF
:102FB000FEF7BEFFA0EB08006428A2D820688003BB
:102FC000F6D50CE0FEF7B4FF804605E0FEF7B0FF53
:102FD000A0EB0800642894D820688003F6D42878F1
:102FE00080073BD5042E11D00C2E01D1022F0DD01D
:102FF000E86801E05EE1B8E0002820681ED040F4F7
:1030000080702060FEF794FF07460CE020684005C2
:103010000CD5E8680028C1D008E000BFFEF788FFA3
:10302000C01B022893D820684005F7D56068297C2A
:1030300020F0F85040EA016060600FE020F48070FA
:103040002060FEF775FF074605E000BFFEF770FF42
:10305000C01B0228B1D820684005F7D428780007A3
:1030600029D568690028D4F8940012D040F00100F6
:10307000C4F89400FEF75CFF074604E0FEF758FF33
:10308000C01B022871D8D4F894008007F6D512E04E
:1030900017E120F00100C4F89400FEF749FF07464D
:1030A00005E000BFFEF744FFC01B02285DD8D4F83E
:1030B00094008007F6D42878400766D5A06D0027D5
:1030C000C00008D4A06D40F08050A065A06D01271D
:1030D00000F08050009052480168C90512D4016880
:1030E000814641F480710160FEF722FF804605E0D1
:1030F000FEF71EFFA0EB0800022836D8D9F8000022
:10310000C005F5D5A868012816D00528D4F8900088
:1031100017D020F00100C4F89000D4F8900020F0FF
:10312000040000BFC4F89000A86841F28839C0B11B
:10313000FEF7FEFE80460FE0D4F8900040F001005C
:10314000F0E740F00400C4F89000F5E7FEF7F0FE69
:10315000A0EB0801494508D8D4F890008007F5D5C0
:103160000EE0FEF7E5FE804606E07CE0FEF7E0FEBE
:10317000A0EB0801494576D8D4F890008007F5D433
:103180001FB1A06D20F08050A0652878800628D55A
:10319000686A0028D4F8980012D040F00100C4F802
:1031A0009800FEF7C5FE074605E000BFFEF7C0FE2B
:1031B000C01B02287DD8D4F898008007F6D510E00F
:1031C00020F00100C4F89800FEF7B2FE074604E0C4
:1031D000FEF7AEFEC01B02286BD8D4F8980080071B
:1031E000F6D4A86AF0B30C2E6BD00228206820F029
:1031F0008070206018D02068000103D4E06820F0BF
:103200000300E060E06807490840E060FEF790FED8
:10321000054651E000100240A85C0108440000206F
:1032200000700040FFFFEEFEFEF782FE064604E05F
:10323000FEF77EFE801B02283BD820688001F7D471
:10324000286B55F82C1F000110380843298A1E4AA4
:10325000490802EB4151AA6841EA02210843297D4D
:10326000490801E02BE024E04FF07E4202EB41618F
:103270000843297B40EAC160E060206840F080702C
:103280002060E06840F08070E060FEF751FE054687
:1032900005E000BFFEF74CFE401B022809D820685D
:1032A0008001F7D50BE000BFFEF742FE401B02286D
:1032B00002D90320BDE8F88320688001F4D40020FF
:1032C000F8E70120F6E700000000E0FF10B5006815
:1032D0000B4641680D480140080CD870C1F3042426
:1032E0005C7001F03F049C70C1F34231197052B917
:1032F00001F07AFFD870587801F076FF587098780E
:1033000001F072FF9870002010BD00003FFFFF0029
:1033100010B50B460168896A596001680969C1F3F3
:103320000E019960006801680D480140C1F3054035
:103330001870C1F306245C7001F07F049C70890D45
:10334000D97052B901F050FF1870587801F04CFF55
:103350005870987801F048FF9870002010BD000068
:103360007F7F7F002DE9F04104004FF0010553D02D
:1033700094F82100002528B9002084F82000204678
:1033800000F050F8022084F821002168CA20486229
:10339000216853204862204601F03CFFFF260427A5
:1033A00018BB206881681E4A1140816021688868C6
:1033B0006268A369104322691A4310438860216838
:1033C000E068086120680169228941EA02410161DF
:1033D0002068C16821F08001C16020688068800693
:1033E00009D4204600F0ECF928B12068466284F840
:1033F0002170012510E02068C16C21F00301C16437
:103400006169E06908432168CA6C1043C864206898
:103410004662012084F821002846BDE8F0810000C2
:10342000BFFF8FFF00680549884205D1044850F866
:10343000901F41F4004101607047000000280040E7
:10344000001002402DE9F05F044690F820000B4682
:1034500001284CD0012084F82000022084F82100AB
:103460002068002680684FEA4060EAB300285BDAF3
:10347000187801F0B9FE00BF93F8200001F0B4FE07
:1034800098781978DA7840EA01405978090241EAD7
:103490008251084393F8201040EA0165D8695F68BB
:1034A000054358692168054398690743CA20486263
:1034B000216853204862586A4FF0FF08B0F5807FBA
:1034C00020684FF0030B4FF47A7A81682ED021F4F4
:1034D000007181602068C16801F0800161F4207191
:1034E000C160FEF725FD00E004E0814653E00220C4
:1034F00000F07AB8002800DBDE70187801F07DFE5D
:103500000504587801F079FE45EA0025987801F025
:1035100074FE0543D87845EA805593F8200001F001
:103520006CFE45EA0065B9E7DE70A5E721F480711D
:1035300081602068C16801F0800161F4C071C160E0
:10354000FEF7F6FC814605E0FEF7F2FCA0EB090071
:10355000504517D82068C068C007F5D02068C561FD
:10356000206847642068816841F480718160206828
:10357000816841F480511FE0FEF7DAFCA0EB0900FE
:10358000504508D92168C1F8248084F821B084F816
:1035900020600320ACE72068C0688007ECD5206875
:1035A0000562206887642068816841F40071816049
:1035B0002068816841F4005181600A48016841F443
:1035C0008021016007480830016841F480210160D2
:1035D0002168C1F82480012084F8210084F820604B
:1035E000002085E70004014030BCBDE8C09F00001A
:1035F0002DE9F047044690F820000B46012820D022
:103600004FF0010984F82090022084F82100DAB1FB
:103610009878D97840EA014558781978000240EA4C
:10362000413005432168CA2048622168532048621E
:10363000204601F0EFFD0026FF274FF0040860BB95
:103640001AE00220BDE8F0875878C10603D500F0E3
:10365000EF000A305870D87801F0CFFD0504587893
:1036600001F0CBFD45EA0025987801F0C6FD054341
:10367000187845EA4035D5E7104805402068456090
:103680002068C16821F08001C160206880688006E0
:103690000BD4204600F094F838B12068476284F8D3
:1036A000218084F820600120CCE72068476284F8FC
:1036B000219084F820600020C4E700003FFFFF0055
:1036C0002DE9F047044690F8200092460D46012867
:1036D00015D04FF0010884F82080022084F82100E2
:1036E0002168CA204862216853204862204601F0C0
:1036F00091FDFF274FF004090026E8BB02E00220FD
:10370000BDE8F0872068BAF1000F80684FEA40609A
:1037100005D0002817DA287801F066FD14E00028AB
:1037200000DBEE70287801F068FD0304687801F092
:1037300064FD43EA0023A87801F05FFD0343E878C5
:1037400043EA80500AE0EE70A8782978EA7840EAE7
:1037500001406978090241EA82510843174908404B
:10376000216808602068816821F480218160D5E9A2
:1037700003010843216800E00FE08A681043886075
:103780002068C16821F08001C160206880688006DF
:103790000BD4204600F014F838B12068476284F852
:1037A000219084F820600120AAE72068476284F80D
:1037B000218084F820600020A2E700007F7F7F0046
:1037C00070B504460068C16821F0A001C160FEF731
:1037D000AFFB05464FF47A7607E000BFFEF7A8FB83
:1037E000401BB04201D9032070BD2068C06880062C
:1037F000F4D5002070BD2DE9F041040005D000256E
:10380000A56294F85D0018B107E00120BDE8F081E1
:1038100084F85C50204600F05BF8022384F85D30A9
:103820002068016821F040010160E0684FF4E06623
:10383000B04201D9002101E04FF48051B0F5706F22
:1038400002D0B04200D0A562276B012227B9B04256
:1038500001D9236300E02263D4E901031843D4E9CA
:10386000043633431843238B03F400731843E3698E
:103870001843236A1843A36A184323681860636BCC
:10388000606AA66918430427E36807EA16463343CB
:103890001843084321684860256684F85D200020AD
:1038A000B4E7000000680749884209D10648816DE5
:1038B00021F4804181654FF460410448FEF768B807
:1038C000704700000038004000100240000400482B
:1038D00000B500680E4987B0884217D10D48816D48
:1038E00041F480418165806D694600F48040059017
:1038F0004FF46040009002200190002002900320CD
:103900000390052004900448FEF740FA07B000BD7C
:103910000038004000100240000400482DE9F05F2C
:10392000044690F85C0000270A9E1D4692468B468E
:103930004FF0010901280ED0012084F85C00FEF749
:10394000F7FA804694F85D00616801280CD0B1F563
:10395000827F07D102E0022000F011B9A16809B905
:10396000042801D0022700E1BBF1000F24D0BAF1F6
:10397000000F21D005B394F85D00042802D0052083
:1039800084F85D0000202066C4F840A0A4F84650EA
:10399000A4F84450C4F838B0E587A587E0642065F2
:1039A000E0684FF4E061884201D8012D06D9206813
:1039B000426822F4805205E00127D6E02068426880
:1039C00042F48052426020680268520603D40268C2
:1039D00042F040020260E0688842606845D908B160
:1039E000012D3AD1A06B21680088C860A06B801CB3
:1039F000A063E08F401EE0872FE020688168890780
:103A00000FD5E18F69B1B9F1010F0AD1A16B098816
:103A1000C160A06B801CA063E08F401EE0874FF068
:103A2000000920688168C9070FD0B4F8461061B159
:103A3000C068216C0880206C801C2064B4F84600AB
:103A4000401EA4F846004FF00109FEF771FAA0EB02
:103A50000800B04201D3701C75D1E08F0028CCD192
:103A6000B4F846000028C8D176E008B1012D6CD129
:103A7000E08F0128A06B08D921680088C860A06B7E
:103A8000801CA063E08F801E07E021680078087327
:103A9000A06B401CA063E08F401EE08755E02068CB
:103AA000816889071AD5E18FC1B1B9F1010F15D12C
:103AB000E18F0129A16B07D90988C160A06B801C27
:103AC000A063E08F801E06E009780173A06B401CA4
:103AD000A063E08F401EE0874FF0000920688168F6
:103AE000C90728D0B4F8461029B3B4F84610012904
:103AF00014D9C068216C0880206C801C2064B4F844
:103B00004600801EA4F84600B4F84600012810D8EC
:103B10002068416841F4805141600AE0007B216CDB
:103B20000870206C401C2064B4F84600401EA4F8C5
:103B300046004FF00109FEF7FBF9A0EB0800B04288
:103B400002D3701C01D018E0BEB1E08F0028A6D1CE
:103B5000B4F846000028A2D142463146204601F082
:103B600035FC10B1012720202066012084F85D007B
:103B7000002084F85C003846EEE60327F5E730BC09
:103B8000BDE8C09F4FF0E0210428086903D020F071
:103B900004000861704740F00400FAE7704710B570
:103BA000401EB0F1807F01D3012010BD4FF0E02412
:103BB00060610F21601701F0DEF90020A06107208D
:103BC0002061002010BD10B5FFF7E8FF10BD704761
:103BD0007047704770B590F83C20012A21D001242D
:103BE00080F83C40022280F83D2003685A689D68B6
:103BF0000D4EB34203D122F470064A68324322F0DC
:103C000070060A688968324325F0800529435A60A6
:103C10000268916080F83D40002180F83C10084621
:103C200070BD022070BD0000002C014010B50400E2
:103C300003D094F83D0010B107E0012010BD002032
:103C400084F83C00204600F00DF8022084F83D0086
:103C5000211D206801F06CFE012084F83D00002049
:103C600010BD000008B501681D48B1F1804F11D0AA
:103C70001C4A91421DD1816D41F010018165806D1A
:103C8000002200F01000009011463620FEF730FDB3
:103C900036201FE0816D41F001018165806D0022B9
:103CA00000F00100009001211C20FEF721FD1C20E6
:103CB00010E00D4A914211D1816D41F020018165E2
:103CC000806D002200F02000009002213720FEF7D6
:103CD0000FFD3720BDE80840FEF7FFBC08BD00001F
:103CE0000010024000100040001400400168CA6843
:103CF00042F00102CA600068826807490A40062A49
:103D000008D082680A40B2F5803F03D0016841F0D4
:103D10000101016000207047070001000168CA68C6
:103D200022F00102CA600068016A41F211121142D8
:103D300007D1016A9210114203D1016821F00101FB
:103D4000016000207047000070B5044690F83C0008
:103D5000012817D0012584F83C50022084F83D004A
:103D600020688268324E324022F47F4282600868C6
:103D7000502839D00DDC202855D005DC98B3102808
:103D800043D150E0022070BD30284CD040283CD1B7
:103D900041E0602830D070280CD0B0F5805F03D0AF
:103DA000B0F5005F31D112E020688168204A70329E
:103DB000114016E0CB68D1E90121206801F0EEFD49
:103DC00021688868304040F0770088601DE0CB684B
:103DD000D1E90121206801F0E1FD2068816841F40A
:103DE0008041816011E01EE0CA684968206801F0E6
:103DF000E7FD5021206806E0CA684968206801F0A4
:103E0000F0FD6021206801F0D3FD84F83D500020D2
:103E100084F83C0070BDCA684968206801F0D0FD94
:103E200040212068EFE7226801461046EBE70000DA
:103E300088FFFEFF704770B50446006801694FF0C7
:103E40000005C943890715D4C168C943890711D43E
:103E5000E91E0161012020772068806980072046E3
:103E600002D0FFF7E7FF04E000F0A7F8204600F0DB
:103E7000A5F8257720680169C943490717D4C168A7
:103E8000C943490713D46FF0040101610220207770
:103E90002068806910F4407F204602D0FFF7CAFFF7
:103EA00004E000F08AF8204600F088F825772068C2
:103EB0000169C943090716D4C168C943090712D467
:103EC0006FF008010161042020772068C069800735
:103ED000204602D0FFF7AEFF04E000F06EF8204667
:103EE00000F06CF8257720680169C943C90617D42A
:103EF000C168C943C90613D46FF0100101610820DD
:103F000020772068C06910F4407F204602D0FFF778
:103F100091FF04E000F051F8204600F04FF82577BB
:103F200020680169C943C90708D1C168C943C907E5
:103F300004D1891E0161204600F042F82068016921
:103F4000C943090609D4C168C943090605D46FF0FD
:103F5000800101612046FFF73BFE20680169C943EB
:103F6000C90509D4C168C943090605D46FF4807135
:103F700001612046FFF72BFE20680169C94349060D
:103F800009D4C168C943490605D46FF040010161F5
:103F9000204600F073F820680169C94389060BD4F4
:103FA000C168C943890607D46FF02001016120462A
:103FB000BDE87040FFF70DBE70BD70477047000050
:103FC00010B51B4900680968884206D100F036FC2C
:103FD000BDE810401648FFF7A1BE1649096888429F
:103FE00004D1BDE810401448FEF7F5BA134909683A
:103FF00088421CD140F2E713114A12A115A002F029
:1040000081F818A002F07EF81B4C2069401C20614A
:10401000A17909B903F0BCFB207CC00703D0BDE83F
:10402000104000F00BBCBDE8104001F05DBF10BDBA
:10403000840E0020C40E0020EC0D0020040F002090
:104040008A5C01082E2E2F5372632F6D61696E2ECC
:10405000630000005B25733A202025733A20256415
:104060005D2000002068736A5F6472762074657357
:10407000742E2E2E200D0A0000000020704770477D
:10408000704710F8711F4078084370472DE9F041E0
:1040900002680446D0691168936810F00F0F4FF062
:1040A00000055BD003F0010601F49077374369D037
:1040B000C70707D0CF0505D501271762626F42F009
:1040C00001026267820708D5DA0706D02768022254
:1040D0003A62626F42F004026267420708D5DA076B
:1040E00006D0236804221A62626F42F002026267FD
:1040F00002070AD501F02002324306D023680822C5
:104100001A62626F42F008026267626F002A32D060
:10411000800605D5880603D5216E09B1204688475B
:10412000606F000703D420688068400625D52046CC
:1041300001F012FD20688168490619D5816821F0D7
:1041400040018160E06E98B120498163E06EFDF727
:1041500010FB00280FD0E06E816B06E0860611D5BB
:104160008E060FD5216E1EE02046BDE8F0410847BF
:104170002046FFF785FFBDE8F0812046FFF780FF6E
:104180006567F8E7C60209D55B0207D54FF48010D2
:1041900010622046BDE8F041FFF771BF030605D568
:1041A0000B0603D5616E0029DED1E4E74006E2D5B7
:1041B0004806E0D51168204621F040011160202119
:1041C00084F87110656600F0C1F9D4E7455B00081A
:1041D00010B5040003D094F8710010B107E001207D
:1041E00010BD002084F87000204600F063F8242001
:1041F00084F871002068016821F001010160204607
:1042000001F016FD0128EBD0606A10B1204601F0E4
:1042100007FC2068416821F4904141602068816872
:1042200021F02A0181602068016841F001010160EC
:104230002046BDE8104001F057BC000010B5174AF9
:1042400001681748914209D1016E21F4804101664D
:10425000BDE81040C0211348FDF79ABB124A9142B5
:104260000AD1816D21F4003181650C214FF090401D
:10427000FDF78EFB26200CE00C4A91420DD1816D9A
:1042800021F4802181654FF440610948FDF780FBEE
:104290002720BDE81040FEF715BA10BD00380140D8
:1042A0000010024000040048004400400048004064
:1042B00000080048F0B5334A01683348022403255A
:1042C000072687B0914220D1016E41F480410166FA
:1042D000006E02AA00F4804005904020CDE9000461
:1042E000002082E86100294F69463846FDF74EFDFF
:1042F0008020CDE9000402AA012082E8610069461D
:104300003846FDF743FD07B0F0BD214A914219D16F
:10431000816D41F400318165806D02AA00F40030A6
:1043200005900C20CDE9000482E8700069464FF04A
:104330009040FDF72BFD002201212620FEF7D8F941
:1043400026201BE0134A9142DDD1816D41F480218A
:104350008165806D02AA00F4802005904FF44060D2
:10436000CDE9000482E8700069460B48FDF70EFDB8
:10437000002201212720FEF7BBF92720FEF7ADF927
:10438000C1E700000038014000100240000400486E
:1043900000440040004800400008004830B590F854
:1043A0007230202B4AD1B1B1AAB190F87030012BF4
:1043B00044D0012380F870304165A0F85820A0F85F
:1043C0005A20002202661D038168FF23A94207D1FB
:1043D000016911B10CE0012030BD40F2FF110DE088
:1043E0007F2419B1B1F1805F05D009E0016901BBFB
:1043F000A0F85C3004E00169D9B13F21A0F85C105D
:104400004267222180F8721001688B6843F0010333
:104410008B608168A94201D1016969B108490166CF
:1044200080F870200068016841F4907101600020FC
:1044300030BDA0F85C40E3E70249F0E7022030BD60
:10444000D55B0008795B00080F4A104990420BD1F8
:104450008889B0F5806F06D201F108020C4B127802
:104460001A54401C888170470A4A9042FBD14889FF
:10447000B0F5006FF7D2054A074BD21D12781A54D7
:10448000401C488170470000BC0F00200000002045
:10449000F008002034100020F00000202DE9F8433F
:1044A000044690F871001F4616460D4620284BD151
:1044B000C5B1BEB194F87000012845D0012084F840
:1044C00070004FF00008C4F87480212084F8710057
:1044D000FDF72EFDA4F850608146A4F852604FF419
:1044E000805615E00120BDE8F8838021204601F0C8
:1044F000C9FCD8B9A068B04201D12069C0B115F893
:10450000010B21680885B4F85200401EA4F852003F
:10451000B4F852004B464FF0000200970028E4D157
:104520004FF04001204601F0ADFC30B10320DAE746
:1045300035F8020BC0F30800E3E7202084F871008F
:1045400084F870800020CEE70220CCE77047FEE7B9
:1045500001688A69D243920701D400228A62006806
:104560008169C943C90703D0816941F001018161B3
:10457000704700002DE9F0410446006890460E4661
:104580008069C043C00633D4002520272068806995
:10459000C043800615D5701CF8D0FDF7C9FCA0EB10
:1045A0000800B04201D8002EF0D154F8440F40F07A
:1045B000200044F804096770A57025700120BDE84B
:1045C000F08121681020C8612068C7612046FFF78C
:1045D000BFFF54F8440B4168064A1140416020680F
:1045E00040F0040044F820096777A5772577E5E7D0
:1045F0000020E4E700E800FE2DE9F84304461646F3
:10460000DDE9089714489846DAB200900023204666
:1046100000F056F83A464946204600F0B9F8B8B9D5
:10462000F5B2B8F1010F08D02168300A88623A4625
:104630004946204600F0ACF850B9206885624B46E8
:10464000002240212046009700F050F8002800D0BA
:104650000120BDE8F8830000002000802DE9F84328
:104660000446164615489846DDE90897DAB2C302B3
:104670000090204600F024F83A464946204600F0D3
:1046800087F8B8B9F5B2B8F1010F08D02168300A3F
:1046900088623A464946204600F07AF850B92068C8
:1046A00085624B46002280212046009700F01EF8CC
:1046B000002800D00120BDE8F88300000020008021
:1046C000F0B50568059C68684FF48066064FC1F335
:1046D000090106EA545641EA02413E431943B043F8
:1046E000214308436860F0BDFF63FF032DE9F041FB
:1046F0001D4617460E460446DDF8188008E0681C83
:1047000006D0FDF715FCA0EB0800A8420BD855B168
:104710002068806936EA000012D00020B842EED04E
:104720000020BDE8F08154F8440F40F0200044F828
:104730000409202060700020A07020700120F0E7A4
:104740000120EBE770B516460D4604460DE03246F3
:1047500029462046FFF70EFF08B1012070BDFDF786
:10476000E7FB801BA84207D835B120688069C043A9
:104770008006ECD4002070BD54F8440F40F02000B7
:1047800044F80409202060700020A0702070E4E745
:1047900070B516460D4604460FE0324629462046BF
:1047A000FFF7E8FE08B1012070BD681C05D0FDF7D9
:1047B000BFFB801BA84207D835B120688069C04381
:1047C0008007EAD4002070BD54F8440F40F0200068
:1047D00044F80409202060700020A0702070E2E7F7
:1047E00000EB8100006E00F0F84070478068C0F375
:1047F000C00070478068C0F380007047C06810F444
:10480000406F01D00020704701207047042310B58D
:1048100003EAD1531844C1F3045107248C4043697F
:104820008A40A3431343436110BD00EB8100016E36
:1048300021F00041114301667047000070B50D4C36
:10484000012220212046FDF76DFB0B4D00220121A6
:104850002846FDF767FB09480CF0D8FF002220210D
:104860002046FDF75FFB2846BDE87040002201218D
:10487000FDF758BB0008004800040048F04902005A
:1048800030B51B4887B019490024C0E90014846082
:104890000425C460C0E90445047644760121C16161
:1048A00080F820408462C46280F83040446380F81D
:1048B0003840FCF7AFFD18B14B210EA001F0E6FB2C
:1048C000104800900620CDE901047F200594CDE931
:1048D000030569460648FCF79FFB002803D05821D2
:1048E00004A001F0D3FB07B030BD0000000004506D
:1048F000F00C00202E2E2F5372632F6164632E6301
:10490000000000001000C0102DE9F04F714887B082
:10491000C16C41F00401C164C16C01F00401059156
:10492000C16C41F08001C164C16C01F0800105914E
:10493000C16C41F00101C164C16C01F0010105913C
:10494000C16C41F00201C164C16C01F0020105912A
:10495000C16C41F00801C164C06CDFF87CA100F0BB
:1049600008000590002243F2E4115046FDF7DAFA00
:1049700040F602084FF0904B002241465846FDF7A2
:10498000D1FA002240F217315448FDF7CBFA4FF428
:104990008059012249465148FDF7C4FA002443F2E8
:1049A00020000125022603948DE8610069465046E7
:1049B000FDF7ECF90B200327CDE9000769460294C7
:1049C0004748FDF7E3F94FF4E2700090CDE9015458
:1049D000694650460394FDF7D9F948F2E110CDE954
:1049E0000007694602945846FDF7D0F9CDE9026404
:1049F000CDE9008569465846FDF7C8F94FF0100823
:104A00003848CDF80080CDE9010569465846FDF7E4
:104A1000BDF9CDF80080CDE9017469465046FDF737
:104A2000B5F9072003948DE8610069462B48FDF72E
:104A3000ADF94FF44260CDE900076946029427487A
:104A4000FDF7A4F941F210300090CDE90154694618
:104A500022480394FDF79AF9234F6802CDE9000735
:104A6000694602965046FDF791F9CDF80090CDE9E0
:104A7000017669465846FDF789F91C4E0420CDE9B8
:104A80000006694602951A48FDF780F90820CDE92D
:104A90000006694602941148FDF778F900220221C8
:104AA0000820FDF725FE002202210920FDF720FE47
:104AB000002202210A20FDF71BFE002202211720FE
:104AC000FDF716FE002201212820FDF711FE07B098
:104AD00000F010B800100240000800480004004830
:104AE000001C0048000031100000111000002110CF
:104AF000000C004830BCBDE8C08F0000174810B55E
:104B0000154901601649416000210122C0E90212E5
:104B1000016141618161C1610162FDF777FA18B1FC
:104B2000432110A001F0B2FA00210C48FDF706FA6B
:104B300018B14A210BA001F0A9FA00210748FDF79E
:104B400028FA18B1512107A001F0A0FABDE81040E1
:104B50004FF48010FDF746BA00540040540D002079
:104B6000330F30002E2E2F5372632F6932632E6362
:104B700000000000174810B5154901601649416052
:104B800000210122C0E90212016141618161C1611C
:104B90000162FDF73BFA18B1682110A001F076FA26
:104BA00000210C48FDF7CAF918B16F210BA001F0E4
:104BB0006DFA00210748FDF7ECF918B1762107A03E
:104BC00001F064FABDE810404FF48000FDF70ABA26
:104BD000005C0040A00D0020330F30002E2E2F531C
:104BE00072632F6932632E63000000000C4810B519
:104BF0000A4901600621416040F6FF71C1604FF42F
:104C00007A718160FDF7B8FC002805D0BDE810403E
:104C10003B2104A001F03ABA10BD00000030004072
:104C2000EC0D00202E2E2F5372632F697764672EB0
:104C30006300000010B5214886B01F490024C0E978
:104C400000147F218160FF21C0E903144461846165
:104C5000C461FEF787FB18B1432119A001F016FAD1
:104C600009208DF800008DF801408DF80240039472
:104C70000022694611480494FEF722FD18B14F2125
:104C80000FA001F003FA05208DF8140003208DF821
:104C900015000F208DF8160013208DF81700002244
:104CA00005A90648FEF7A4FC002803D0592104A05A
:104CB00001F0ECF906B010BD00280040FC0D00200A
:104CC0002E2E2F5372632F7274632E630000000028
:104CD000134810B5114901604FF482714160002101
:104CE0004FF4E062C0E902124FF400720161C0E9C2
:104CF00005123822C0E9072107224162C0E90A12E1
:104D0000016308214163FEF776FD002805D0BDE868
:104D10001040472103A001F0B9B910BD0038004090
:104D2000200E00202E2E2F5372632F7370692E6376
:104D30000000000010B5184888B04FF080410160B5
:104D400041F63F710024C0E9011447F22F51C0E938
:104D500003148461FEF76AFF18B141210FA001F02E
:104D600095F94FF48050039003A90B48FEF7ECFF30
:104D700018B1472109A001F089F900946946064855
:104D80000294FEF727FF002803D04E2103A001F074
:104D90007DF908B010BD0000840E00202E2E2F5388
:104DA00072632F74696D2E63000000003EB51148D8
:104DB0000F490024016043F67F61C0E9011444F605
:104DC0001F618461C160FEF731FF18B15E210AA046
:104DD00001F05CF90094694606480294FEF7FAFE79
:104DE000002803D0652104A001F050F93EBD000069
:104DF00000100040C40E00202E2E2F5372632F741B
:104E0000696D2E63000000003EB511480F49002473
:104E1000016043F67F61C0E9011444F61F618461BB
:104E2000C160FEF703FF18B175210AA001F02EF949
:104E30000094694606480294FEF7CCFE002803D091
:104E40007C2104A001F022F93EBD000000140040C6
:104E5000040F00202E2E2F5372632F74696D2E6362
:104E6000000000000E4810B50C4901604FF4E1311C
:104E70004160002181600C22C160C0E9041281619F
:104E8000C16101624162FFF7A3F9002805D0BDE8C6
:104E90001040472103A001F0F9B810BD00380140CF
:104EA000440F00202E2E2F5372632F75736172747E
:104EB0002E6300000E4810B50C4901604FF46141AB
:104EC0004160002181600C22C160C0E9041281614F
:104ED000C16101624162FFF77BF9002805D0BDE89E
:104EE00010405C2103A001F0D1B810BD0044004087
:104EF000BC0F00202E2E2F5372632F7573617274B6
:104F00002E6300000E4810B50C4901604FF4E131EA
:104F10004160002181600C22C160C0E904128161FE
:104F2000C16101624162FFF753F9002805D0BDE875
:104F30001040712103A001F0A9B810BD0048004045
:104F4000341000202E2E2F5372632F7573617274EC
:104F50002E630000EF23037001234370FF2383704F
:104F6000C370037143718171921C110AC171027285
:104F70007047FEE770470907090E002806DA00F0BF
:104F80000F0000F1E02080F8141D704700F1E020D0
:104F900080F80014704770472DE9F041444C0546F5
:104FA0008846E0680026810728680DD0E16801F096
:104FB0000301814216D1A8B1E0686968C0F302100C
:104FC000401C88420ED120E0012804D0022805D0E0
:104FD000032807D108E02168890701E02168490515
:104FE000002907DB01265FE02168890302D42168DC
:104FF0004903F5E7E1686A686FF00F0321F0730178
:1050000003EB021211430143E160206820F080604D
:105010002060FCF78DFF074605E000BFFCF788FF26
:10502000C01B022837D820680001F7D4B8F1000F60
:1050300018D0B8F1010F1DD0287D4FF07E414008F7
:1050400001EB4060A96840EA01202169194A11403A
:1050500008432061206840F080602060FCF768FF12
:1050600007461AE0A868297B000240EAC16021696E
:10507000114AECE7288A1149400801EB4050A96821
:1050800040EA012021690E4AE1E700BFFCF750FF2A
:10509000C01B022801D9032606E020680001F5D5CF
:1050A0002069A969084320613046BDE8F08100000D
:1050B00000100240FF80FFF9FF80FF070000E0FFC3
:1050C000FF809FFFF8B51C4D06460024A86DC00068
:1050D00002D5FDF78FFB0DE0A86D40F08050A8656C
:1050E000A86D00F080500090FDF784FBA96D21F0C1
:1050F0008051A965B0F5007F04D0802E07D94FF00C
:1051000003040AE0802E08D9A02E01D804E001D1C2
:10511000022402E0702E00D101240848016821F029
:10512000070121430160006800F00700A04201D0A0
:105130000120F8BD0020F8BD001002400020024010
:1051400010B504461F488AB00068C16801F08001AC
:1051500061F4C071C1601C494FF4802008600022D6
:105160001A491848FEF7D4F8002219491548FEF7E5
:10517000ADF8002115488DF800108DF801108078E9
:105180003C222044B0FBF2F302FB13008DF8020036
:1051900010480391CDE9041001208DF82000019101
:1051A0000002069107910990002269460548FEF722
:1051B00049F9002803D0992107A000F067FF0AB041
:1051C00010BD0000FC0D002014040140DC00002094
:1051D0001B000020008080802E2E2F5372632F72C0
:1051E00074632E6300000000010901EB810100F0EF
:1051F0000F0000EB4100C0B270470022014602E000
:105200000A39C9B2521C0A29FAD2100741EA1060C1
:105210007047000070B504460068C168490614D4A0
:105220004FF0FF31C160FCF783FE05464FF47A76FC
:1052300007E000BFFCF77CFE401BB04201D9032011
:1052400070BD2068C0684006F4D5002070BD000025
:10525000F8B50C4E0C468DF800004FF48055002236
:1052600029463046FCF75EFE684600F011FF9DF8C7
:1052700001006070012229463046FCF753FE0020F1
:10528000F8BD0000000400487047000038B50B4D21
:105290008DF800008DF801104FF480540022214653
:1052A0002846FCF73FFE684600F010FF0122214629
:1052B0002846FCF737FE002038BD000000040048F7
:1052C00010B50A200CF0A2FA094C00220421204655
:1052D000FCF728FE0A200CF099FA0122042120464E
:1052E000FCF720FEBDE810400A200CF08FBA000049
:1052F0000008004870B50E4C002280212046FCF7C3
:1053000011FE40F2DC5528460CF080FA0122802183
:105310002046FCF707FE28460CF078FA0022802190
:105320002046FCF7FFFD2846BDE870400CF06EBA41
:105330000008004811B583B0FF208DF804006420F8
:105340000090012301AA03A90948FEF7E7FA040027
:1053500009D05123074A08A112A000F0D3FE21462C
:1053600014A000F0CFFE9DF8040004B010BD0000B2
:10537000200E0020E2B701082E2E5C557365725C8A
:1053800072633636335C706853756242616C5C736D
:1053900072635C52656743746C5F53706948772E23
:1053A000630000005B25733A202025733A202564B2
:1053B0005D200000737069322073656E6420666141
:1053C000696C202564200D0A00000000F8B5154620
:1053D0000E460B460092044600224FF4C05100F0E6
:1053E00019F888B93346002280212046009500F044
:1053F0005CF848B9334600224FF4C061204600955E
:1054000000F008F8002804D0206E40F0200020664C
:105410000320F8BD2DE9F0471D4617460E46044609
:105420004FF4C068DDF820900CE0464501D107B983
:10543000007B681C06D0FCF77BFDA0EB0900A842AE
:1054400008D23DB1206881683140B942EDD10020D9
:10545000BDE8F0872068416821F0E00141606068A4
:10546000B0F5827F0BD1A068B0F5004F02D0B0F547
:10547000806F04D12068016821F040010160A06ABA
:10548000B0F5005F09D12068016821F40051016086
:105490002068016841F400510160012084F85D003A
:1054A000002084F85C000320D2E72DE9F0411D467E
:1054B00017460E460446DDF8188008E0681C06D042
:1054C000FCF736FDA0EB0800A8420BD255B12068CE
:1054D000806836EA000030D00020B842EED10020CB
:1054E000BDE8F0812068416821F0E001416060681A
:1054F000B0F5827F0BD1A068B0F5004F02D0B0F5B7
:10550000806F04D12068016821F040010160A06A29
:10551000B0F5005F09D12068016821F400510160F5
:105520002068016841F400510160012084F85D00A9
:10553000002084F85C000320D2E70120CDE770470B
:105540002DE9F041B0B00546142112A8FAF787FE04
:1055500044216846FAF783FEDFF8FC8100241194A9
:10556000D8F8581041F08051C8F85810D8F85800B1
:1055700000F080502E906846FDF764FB02270A97E2
:1055800068460094FDF746FC20B14FF47E7173A08D
:1055900000F07CFD11A912A8FDF72EFB01260320C7
:1055A000CDE9126012A81199FDF79AFA20B140F2E4
:1055B00005416AA000F06AFD7048219417904FF0F1
:1055C00080502B902394001520942D901F942594A7
:1055D00018961020CDE919600720CDE91B074FF080
:1055E0008070CDE91D7017A8FDF71CF920B140F2BD
:1055F0001D415AA000F04AFDFFF786F900F0DCFCDF
:10560000D8F85800444640F40010C8F85800D8F8BC
:10561000580000F400102E90FFF770FA5848FCF77D
:105620006FFFA06D40F40000A065A06D00F40000C5
:105630002E90FFF79FFA5348FCF762FFA06D40F4ED
:105640008040A065A06D00F480402E90FFF740FBE5
:105650004D48FEF73DF9E06C40F40050E064E06C2A
:1056600000F400502E90FFF70BF94848FBF7A8FF15
:105670004648FBF7B1F9FBF77BFA06F0B5FE08F0F8
:105680003FFC07F00BFEFFF71BFE06F0B5FE05F032
:105690003BFD3F4C3F4F2068008800B93E7048F208
:1056A00030000BF08FFD40F23C433B4A2BA13BA066
:1056B00000F028FD206801893CA000F023FD20684F
:1056C000007A0BF0CBFD4FF4FA600CF09FF84FF42A
:1056D0008056B5F5007F07D0B54205D0387801284F
:1056E00002D001200BF0BAFD2068008838B1082DE7
:1056F00003D0102D01D0B54201D102F077FC304823
:10570000FCF769FF2F480660066010214FF09040BB
:10571000FCF703FC01280FD04FF48A631E4A0FA147
:105720001EA000F0EFFC28A000F0ECFC2548001FB4
:10573000016841F01001016028480CF067F840F260
:105740005643154A05A115A000F0DCFC24A000F08A
:10575000D9FC30B0BDE8F081001002402E2E5C551F
:105760007365725C4170706C69636174696F6E5CC3
:105770007372635C6D656E752E63000047410200B5
:10578000540D0020A00D0020200E0020F00C002061
:105790009400002001000020D3B301085B25733A78
:1057A000202025733A2025645D2000002073797342
:1057B00020766F696365203A2564200D0A00000099
:1057C000EC0D002014040140616E74695F68696A21
:1057D0006B20202E2E2E0D0A00000000400D03002D
:1057E0002323232323232323232323232323232389
:1057F000232077616B657570200D0A0010B5FCF7EA
:10580000F1FEBDE81040FEF7DEB90000F0B5ADB026
:10581000FCF7F8FF2A4850F8901F21F018010160AA
:1058200001251C201C95179060201F9019950024BD
:10583000CDE91D540226CDE921650727CDE925765E
:1058400028202796CDE9235017A8FDF7E3FA0F206B
:1058500028900320CDE929042B94042128A82C9416
:10586000FDF73EF917480A940090280714900C940D
:105870000015169008941020CDE902500994019566
:1058800000050E94CDE90660CDE904766846FCF784
:10589000C9FF6802FCF75EFFFDF7CEF94FF47A719D
:1058A000B0FBF1F0FEF77BF90420FEF76BF9FCF793
:1058B000B1FF00221146501EFCF71AFF2DB0F0BDBB
:1058C00000100240474102000D48016841F4700198
:1058D00001600C48016841F0010101600021816014
:1058E0000268094B1A4002608214C260026822F406
:1058F0008022026081610249C003803908607047DC
:1059000088ED00E000100240FFFFF6EA0148FEF7D4
:1059100092BA0000840E00200148FEF78CBA000005
:10592000C40E00200148FEF786BA0000040F0020D4
:1059300070B50268164B4FF08046984201D0B042D5
:1059400003D122F070044A682243124C124D98424F
:1059500005D0B04203D0A04201D0A84203D122F426
:105960004076CA6832434E6922F0800232430260B8
:105970008A68C2620A688262984203D0A04201D05B
:10598000A84201D1096901630121416170BD000094
:10599000002C0140004001400044014010B58468E3
:1059A00042EA032224F47F440A432243826010BD6A
:1059B000826822F070020A4342F00701816070475A
:1059C00010B5036A046A24F001040462846924F0B7
:1059D000F00444EA021423F00A020A4384610262DA
:1059E00010BD10B5036A23F0100303628369046AD3
:1059F00023F4704343EA023224F0A00343EA011186
:105A00008261016210BD00000448006801694FF620
:105A1000FE72114001610148FEF768B9840E002052
:105A200090F82410C90706D001684A68836A22F4F6
:105A300000321A434A6090F82410890706D501689D
:105A40004A68C36A22F480321A434A6090F82410EC
:105A5000490706D501684A68036B22F480221A437D
:105A60004A6090F82410090706D501684A68436B1C
:105A700022F400421A434A6090F82410C90606D561
:105A800001688A68836B22F480521A438A6090F816
:105A90002410890606D501688A68C36B22F4005277
:105AA0001A438A6090F82410490611D501684A68A3
:105AB000036C22F480121A434A60016CB1F5801F16
:105AC00006D101684A68436C22F4C0021A434A6056
:105AD00090F82410090606D501684A68806C22F403
