:020000040800F2
:10000000406E0020A1010008D7420008173A0008FE
:10001000D5420008FB0B0008A551000800000000B5
:100020000000000000000000000000001F48000861
:10003000310C000800000000F9420008014B0008E4
:10004000BB010008BB010008BB010008BB010008A0
:10005000BB010008BB010008330C0008BB0100080D
:10006000390C0008BB010008BB010008BB010008F7
:10007000BB010008BB010008BB010008BB01000870
:10008000BB010008BB010008BB010008BB01000860
:10009000BB010008BB010008BB0100083F0C0008C1
:1000A000BB010008BB010008BB010008BB01000840
:1000B000BB0100080000000000000000BB010008B8
:1000C000BB010008BB010008BB010008BB01000820
:1000D000BB010008BB0100081D5100086151000868
:1000E000BB010008BB010008000000000000000088
:1000F0000000000000000000000000000000000000
:1001000000000000BB01000800000000BB01000867
:100110000000000000000000BB010008BB01000857
:10012000BB010008BB010008BB010008BB010008BF
:10013000BB010008000000000000000000000000FB
:10014000BB010008BB010008BB0100080000000063
:10015000BB010008BB010008BB010008BB0100088F
:10016000BB010008BB010008BB0100080000000043
:10017000BB010008BB0100080000000000000000F7
:10018000BB010008BB010008BB010008DFF80CD070
:1001900000F0E8FA00480047E5B30008406E002090
:1001A0000648804706480047FEE7FEE7FEE7FEE711
:1001B000FEE7FEE7FEE7FEE7FEE7FEE7C94B0008C5
:1001C0008D0100082DE9F05F0546002092469B4610
:1001D00088460646814640241BE02846414647465D
:1001E000224600F008FA53465A46C01A914110D3ED
:1001F00011461846224600F0EFF92D1A67EB010868
:100200004F4622460120002100F0E6F917EB0009D5
:100210004E41201EA4F10104DFDC484631462A4647
:10022000434600F000B830BCBDE8C09F40EA01037F
:100230009B0703D009E008C9121F08C0042AFAD29C
:1002400003E011F8013B00F8013B521EF9D2704760
:10025000D2B201E000F8012B491EFBD27047002208
:10026000F6E710B513460A4604461946FFF7F0FFB5
:10027000204610BD421E12F8013F002BFBD111F8A1
:10028000013B02F8013B002BF9D1704730B5054620
:100290002A460B4612F8010B13F8014B08B1A04295
:1002A000F8D01CB1002802D06D1CF1E7284630BD03
:1002B00010B5044604E00B7800F8013B03B1491C7B
:1002C000521EF8D2204610BD421C10F8011B002916
:1002D000FBD1801A704710B5002200E0521C835CED
:1002E0008C5CA34201D1002BF8D1D8B2E1B2401A04
:1002F00010BD034611F8012B00F8012B002AF9D19B
:100300001846704730B505460020034600E05B1CE8
:10031000934205D2EC5CC85C201A01D1002CF6D1C6
:1003200030BD10B5484304460BF076F9002805D0DF
:100330000021002C02D0641E0155FAE710BD2DE902
:10034000FE4F804681EA0300C00F0C46009021F06A
:10035000004123F00045B8EB0200A94105D2404618
:10036000214690461C460B46024623F000401043AF
:1003700047D0270DC7F30A00C3F30A510290401A71
:10038000019040286BDAC3F3130040F4801B0098FF
:10039000924620B10023D2EB030A63EB0B0B0198CA
:1003A0005946C0F14002504600F016F906460D4687
:1003B00050465946019A00F02EF910EB08006141B1
:1003C000002487EA115284EAE7731A4340D0009A66
:1003D00062B3019A012A4FEA075215DC001B61EB58
:1003E00002014FF0004202EA0752CDE90042001C30
:1003F00041F5801132462B4600F065F903B000F05C
:1004000045B840462146F9E7001B61EB0201001C9C
:1004100041F5801300185B412018A2F5001747EB47
:10042000030140EAD570B6196D4111E06D084FEA3D
:10043000360645EAC0754FEA0752001B61EB020120
:10044000001C41F5801149084FEA30000019514164
:1004500032462B4603B000F01CB800F025B90098D6
:10046000012240000023D0EB020263EBE07300980E
:1004700021464FEAE074B8EB000061EB0401E9E7C4
:1004800083F000435BE781F0004158E730BCBDE8F2
:10049000C08F30BCBDE8C04FFFF7DFBF2DE9FE4F76
:1004A00081EA030404F0004421F0004100944FF07D
:1004B000000B23F0004350EA01045ED052EA03042B
:1004C0005BD0C3F30A54C1F30A552C44A4F2F334AD
:1004D0000194A0FB0254C1F3130141F48011C3F352
:1004E000130343F4801301FB024400FB034E840A10
:1004F000970A44EA815447EA8357A4FB07680295A8
:100500008D0A05FB07854FEA932C04FB0C54270545
:10051000029D4FEA065847EA1637B5EB08056EEB21
:10052000070C870E920E47EA811742EA8312A7FB57
:100530000201B6EB0B0164EB00042B0D43EA0C3314
:100540005E1844EB1C50DA465146E7FB0201C5F346
:1005500013044FEA0B3343EA14534FEA0432019C6D
:1005600043EA0603A4F10C040294009CCDE900B414
:1005700000F0A9F803B000F003B800200146F9E745
:1005800030BCBDE8C08F0EB540F23341029100216E
:10059000CDE900110A460B4600F095F803B000BD06
:1005A00001F0004330B421F0004150EA010206D0CE
:1005B0000A0DA2F56072C1F31301002A02DC30BCFF
:1005C00000207047440F44EAC104C100E01830BC69
:1005D00000EBC25000F031B8202A04DB203A00FAC8
:1005E00002F1002070479140C2F1200320FA03F38A
:1005F000194390407047202A04DB203A21FA02F088
:100600000021704721FA02F3D040C2F1200291404C
:10061000084319467047202A06DBCB17203A41FAD7
:1006200002F043EAE07306E041FA02F3D040C2F17F
:10063000200291400843194670470029A8BF70471F
:10064000401C490008BF20F00100704710B4B0FA08
:1006500080FC00FA0CF050EA010404BF10BC7047A3
:1006600049B1CCF1200421FA04F411FA0CF118BFBD
:10067000012121430843A3EB0C01CB1D4FEA00618C
:100680004FEA102042BF002010BC704700EBC3505F
:1006900010440029A4BF10BC7047401C490008BF8B
:1006A00020F0010010BC704710B5141E73F1000457
:1006B00008DA401C41F1000192185B411A4301D154
:1006C00020F0010010BD2DE9F04D92469B4611B17E
:1006D000B1FA81F202E0B0FA80F220329046FFF7E0
:1006E0007BFF04460F4640EA0A0041EA0B015346ED
:1006F0005A46084313D0114653EA010019D0C8F1F5
:1007000040025046FFF777FF05460E4650465946D1
:100710004246FFF761FF084305D0012004E0204670
:100720003946BDE8F08D0020054346EAE0762C43CB
:1007300037430A986305E40AA0EB08000022FD0A8B
:1007400044EA47540A3002D500200146E9E7010592
:1007500010196941DDE9084500196941BDE8F04D0E
:10076000A2E70000064C074D06E0E06840F00103F8
:1007700094E8070098471034AC42F6D3FFF70AFD1F
:1007800054920108749201082DE9F04104460027B3
:100790000D46006803F0CCFA0646206803F0C4FA60
:1007A000304359D02068C1682C4E890105D5617E3F
:1007B000012902D1217E01290BD0022D1DD02068F4
:1007C00003F0B6FAB8B120688168C1F3400169B19D
:1007D00011E00125224902E08F422ED27F1C0268DF
:1007E000D2435206F8D440210160E8E781683140E5
:1007F00041F010018160012D11D0206803F094FABE
:1008000048B120688168C1F3400121B98168314055
:1008100041F020018160022D08D0032D04D0042571
:1008200001F0F2F9064613E00C25F9E70825F7E791
:1008300001F0EAF9801B05280AD9606D40F010002C
:100840006065A06D40F00100A0650120BDE8F08169
:10085000206880682842EBD10020F7E7C0FFFF7FC7
:10086000000040A370B50446006881688268C1F347
:10087000400112F0010F24D019BB816801F00D0175
:10088000012910D18168104A1140891C81602168BA
:100890000320086001F0B8F905460EE001F0B4F954
:1008A000401B022809D9606D40F010006065A06D02
:1008B00040F00100A065012070BD20688068C0077D
:1008C000ECD1002070BD0000C0FFFF7F70B5044672
:1008D0000068816811F0010F28D18168144A114223
:1008E00015D18168D5432940491C816001F08CF9FC
:1008F000064616E0816811F0010F03D18168294096
:10090000491C816001F080F9801B022809D9606DC3
:1009100040F010006065A06D40F00100A06501206E
:1009200070BD20680168C943C907E3D1002070BDCC
:100930003F00008010B55A213A2000F037F900211D
:10094000232000F033F9E021242000F02FF90021CA
:10095000252000F02BF90821262000F027F902219C
:10096000272000F023F90221282000F01FF9102190
:10097000292000F01BF910212A2000F017F904218A
:100980002B2000F013F900212D2000F00FF9002199
:10099000BDE810403A2000F009B910B5FFF7CAFFD2
:1009A00041F288300EF0B8FF5A213A2000F0FEF8EC
:1009B0000821212000F0FAF800212C2000F0F6F8A0
:1009C000E121242000F0F2F80521202000F0EEF8CB
:1009D0000721002000F0EAF80921012000F0E6F8E4
:1009E0000A21022000F0E2F80921032000F0DEF8DD
:1009F0000921042000F0DAF80521084600F0D6F8B5
:100A00000421062000F0D2F80321072000F0CEF8E0
:100A10000421092000F0CAF802210A2000F0C6F8DB
:100A200004210B2000F0C2F809210C2000F0BEF8D0
:100A30000021BDE810403A2000F0B8B8FFF7ADBF84
:100A40001FB54FF47A73012203A98DE80E001346F7
:100A50000246AF21034801F08DF99DF80C0004B067
:100A600010BD0000400600202DE9F047062001F0EF
:100A700091FB3420FFF7E4FF80463520FFF7E0FFCD
:100A80002A4D0646AF1C4FF00109B8F1000F1ED0E9
:100A9000002440F2431600BF28FA04F0C00711D02A
:100AA00000200EF055FC381985F8009040786870E9
:100AB00033461F4A1FA127A004F066FC697829A0CD
:100AC00004F062FC641CE4B2082CE5D329E0F6B122
:100AD00000244FF4A87800BF26FA04F0C00711D014
:100AE00000200EF035FC381985F80090407A6870C7
:100AF00043460F4A0FA117A004F046FC697820A0D6
:100B000004F042FC641CE4B2082CE5D309E04FF485
:100B1000AB73074A07A10FA004F036FC1FA004F036
:100B200033FCBDE8F047062001F03FBB1C0000206D
:100B3000F83E01082E2E5C557365725C447269762E
:100B40006572735C7372635C617074386C31362EDD
:100B5000630000005B25733A202025733A2025644A
:100B60005D2000006765745F6375725F6E756D620E
:100B700065722E6E756D6265723A25640D0A00000D
:100B80006765745F6375725F6E756D6265722E6EF8
:100B9000756D6265723A2564200D0A006B657920D7
:100BA000756E7072657373200D0A0000F3B583B023
:100BB000012504AE4FF47A740096CDE9015407463E
:100BC00002462B46AE21084801F08AF9002808D0D9
:100BD0000096CDE9015401233A46AE21024801F0C6
:100BE0007FF905B0F0BD00004006002010B50BF005
:100BF00003FABDE810400BF029BAFEE770B50024F7
:100C000004F1B000C0B204F015FB102004F012FB98
:100C1000022004F00FFB0025002004F01CFB6D1CDB
:100C2000EDB2802DF8D3641CE4B2082CE8D370BD7B
:100C30007047012000F00ABF042000F007BF10B584
:100C4000202000F003FF802000F000FFBDE81040EE
:100C50004FF4807000F0FABE124A117F1248012949
:100C600001D003290BD1036843F4006303600368D8
:100C700023F400630360036843F4007303600229F4
:100C800001D003290BD1016841F480510160016852
:100C900021F480510160016841F48061016000200D
:100CA000107770479C00002000200240C1070548D3
:100CB00003D0416941F004014161416941F480314F
:100CC000416170470020024006494A6960F3CA0248
:100CD0004A61486940F002004861486940F4803048
:100CE0004861704700200240044910B54C6944F047
:100CF00001044C610260436010BD0000002002400E
:100D0000074B10B55C69402244F480245C6172B6E4
:100D100008C908C0521E12F0FF02F9D162B610BD18
:100D20000020024070B5054600F06EFF0646174CE5
:100D300008E0681C06D000F067FF801BA84201D3C2
:100D4000032070BD2069C003F3D42169104801401D
:100D5000A06900F00040084311D00E494A680243E0
:100D60004A60810F04D0A16900F040421143A161A3
:100D7000810002D020F040402061012070BD206938
:100D8000C00701D001202061002070BD002002407A
:100D9000FAC302009C0000200D4910B509684FF607
:100DA000FF734FF48014994201D1224601E00A05F5
:100DB000920A02F10062824204D900BFA0F10060F1
:100DC000C00A10BD994201D009058C0A001BF5E745
:100DD000E075FF1F2DE9F84F00270446009790F8B3
:100DE0005000DFF8B0930D46B846012811D0012617
:100DF00084F85060206802F09BFF60B1606D40F0A5
:100E0000200060655FF0010784F85080384600F0EC
:100E1000D7B90220FBE768680C23052812D80228FE
:100E200007D0032807D0042807D0052807D00620BC
:100E300007E06B6006E0122003E0182001E04FF4A9
:100E400080706860D5E9002103EA9113206801F001
:100E50001F0118444FF01F0C0CFA01FC036BC2F386
:100E6000846223EA0C038A4013430363206802F080
:100E70005FFF8246206802F057FF5AEA00001DD14A
:100E8000AA682968206802F05FFF20686969C26863
:100E9000C2F3C102520091402A69042A0FD000EB2C
:100EA00082002B68DFF8F0C2026E03F0F84302EA1A
:100EB0000C020B431A4342F00041016672E000212C
:100EC00002F02CFF400320684FF0000172D002F0C6
:100ED00025FF90FAA0F0B0FA80F1286842036ED0A6
:100EE00090FAA0F0B0FA80F0814204D100221146BD
:100EF000206802F038FF0121206802F00FFF400354
:100F000020684FF001015DD002F008FF90FAA0F0D8
:100F1000B0FA80F12868420359D090FAA0F0B0FAF4
:100F200080F0814204D100220121206802F01BFFE1
:100F30000221206802F0F2FE400320684FF0020117
:100F400048D002F0EBFE90FAA0F0B0FA80F12868E9
:100F5000420344D090FAA0F0B0FA80F0814204D16C
:100F600000220221206802F0FEFE0321206802F028
:100F7000D5FE400320684FF0030133D002F0CEFECF
:100F800090FAA0F0B0FA80F1286842032FD090FACE
:100F9000A0F0B0FA80F0814204D100220321206841
:100FA00002F0E1FE2068816811F0010F22D0ACE070
:100FB00000E004E002F0B2FEC0F384618DE7C0F30C
:100FC000846091E702F0AAFEC0F38461A2E7C0F357
:100FD0008460A6E702F0A2FEC0F38461B7E7C0F325
:100FE0008460BBE702F09AFEC0F38461CCE7C0F3F3
:100FF0008460D0E72A7B296850F8B03FC1F3120C17
:1010000023EA0C0302F0180C644A22FA0CF20A409C
:1010100013430360E968494577D1286841031CD030
:1010200090FAA0F1B1FA81F1491C01F01F010929E0
:101030004FEA403132D8002912D000BF90FAA0F117
:10104000B1FA81F101F1010101F01F0106FA01F687
:1010500009D100BFC0F3846109E0C0F38461E3E714
:10106000C0F38461EEE790FAA0F1B1FA81F101F1E9
:10107000010101F01F0146EA816102D1C0F38460E1
:1010800003E090FAA0F0B0FA80F000F1010000F067
:101090001F0000EB400041EA005132E000290ED071
:1010A00090FAA0F1B1FA81F101F1010101F01F0103
:1010B00006FA01F606D100BFC0F3846106E0C0F372
:1010C0008461F1E790FAA0F1B1FA81F101F1010137
:1010D00001F01F0146EA816102D1C0F3846003E0A0
:1010E00090FAA0F0B0FA80F000F1010000F01F00CB
:1010F0002B4A00EB400002EB005041EA000141F0B6
:101100000071AA68206802F01FFE26482A68024281
:101110003FF47AAE24488168244D254B01F0E071FC
:10112000AA421AD10D0218D422689A427FF46CAEFA
:10113000826841F4000122F0E0720A4382601D4897
:101140001D490068B0FBF1F000EB4000800000E0BA
:10115000401E00900028FBD156E6184DAA4207D148
:10116000CD0105D422689A42F6D141F080710AE09F
:101170006FF00045EA42EFD14A02EDD422689A426C
:10118000EAD141F48001826822F0E0720A43826071
:101190003AE6000000007F4000F0FF03FFFF070079
:1011A000000020FE0000088000030450000052C729
:1011B0000000045018000020400D0300000084CB04
:1011C00018BCBDE8E08F406D70470068006C704748
:1011D000F8B54FF0000504002E46009502D0606D72
:1011E00010B107E00120F8BD204600F0C7F8A66561
:1011F00084F8506020688168C1F3407119B181683A
:10120000564A1140816020688168C1F3007179B944
:101210008168534A114041F08051816051485249E0
:101220000068B0FBF1F000E0401E00900028FBD108
:1012300020688168C1F3007141B9616D41F010010E
:101240006165A16D41F00101A165012502F070FD0C
:10125000616DC90600D430B1606D40F0100060656A
:1012600001252846F8BD606D20F4807040F0020032
:1012700060652068806810F0010F0BD13B488068E2
:1012800010F0010F06D13A486168826822F47C129E
:101290000A438260E168606B627E0843A16841EAAC
:1012A0004231084394F8201040EA0140012904D15A
:1012B000A18C304A02EB41410843A16A29B101F4F3
:1012C0007071E26A014342EA01002168CA682A4B50
:1012D0001A400243CA60206802F02AFD06462068D0
:1012E00002F022FD304315D1207E94F830108003A7
:1012F00040EA41022068C16844F202039943114365
:10130000C16094F8380001280CD02068016921F0F0
:1013100001010161206901282068016B21F00F01A2
:1013200011D013E0D4E90F010843D4E9111211439D
:10133000084321680A6940F2FC739A43104340F065
:1013400001000861E6E7E269521E11430163606D26
:1013500020F0020040F00100606582E7C0FFFF5FFF
:10136000C0FFFF7F18000020400D03000000045064
:10137000000304500000FEFF07C0F0FF00B5006846
:101380000C4987B0884212D10B48C16C41F400511E
:10139000C164C06C694600F40050059008200090BC
:1013A0000B20019000200290044800F05BFB07B086
:1013B00000BD00000000045000100240000800487A
:1013C0002DE9F041044640690D4608280AD02068FE
:1013D000C068C00708D0606D40F020006065012043
:1013E000BDE8F081082600E0042600F00DFC074669
:1013F00007E0681C05D000F007FCC01BA8420FD80E
:1014000075B1206800683042F3D0606D40F4007020
:101410006065206802F090FCD0B1607E48B117E0B2
:10142000606D40F004006065002084F850000320E7
:10143000D6E72068006800070AD5606D20F4807048
:101440006065606DC00403D4606D40F001006065AC
:101450002068C168082E05D0490401D40C21016020
:101460000020BDE70821FAE710B50446006802F045
:101470005FFC10B10221084610BD94F8500001280D
:101480000CD0012084F850002046FFF71FFA01001D
:101490004FF0000004D084F85000ECE7022010BDAB
:1014A000626D40F601639A4342F480726265626D38
:1014B000D20404D5A26D22F00602A26500E0A06568
:1014C00023681C221A6084F850002068C2689201C8
:1014D00005D5626D22F4005242F480526265826842
:1014E000024B1A40121D8260C5E70000C0FFFF7F5B
:1014F00010B5044690F85000012808D0012084F867
:10150000500003212046FFF73FF910B10BE0022005
:1015100010BD2046FFF7A6F928B9616D21F4885166
:1015200041F001016165002184F8501010BD10B533
:1015300090F825100024022903D00421C16301245E
:101540001AE001680A6822F00E020A6001680A685F
:1015500022F001020A6090F84410036C01F01C02B2
:10156000012101FA02F25A6080F82510002180F86A
:101570002410816B01B18847204610BD2DE9F05F32
:10158000054634488946017801290CD00127804658
:1015900007704CF2503B5846FFF7C4FB06004FF073
:1015A000000A03D052E0022000F058B851464046ED
:1015B000C8F804A0284C226892050ED5216821F4B1
:1015C000007121602168490505D5216821F48061F9
:1015D0002160032109E0077708E02268520504D55D
:1015E000216821F4806121600221017728680128A7
:1015F00007D04FF0FF31C9F8001040F2FA7BAF6816
:101600001DE06868FFF752FB5846FFF78BFB064664
:10161000606920F00400606116E038466968FFF7F1
:1016200053FB4CF25030FFF77DFB0600606920EA67
:101630000B00606102D0C9F8007005E07F1CD5E99D
:1016400002010844B842E8D8FFF706FB88F800A07A
:101650003046A9E79C0000200020024030BCBDE8D5
:10166000C09F00000348416941F0004141610020F2
:1016700070470000002002402DE9FF5F254C064620
:10168000904620789A4601280BD0012020704CF219
:10169000503B5846FFF746FB07004FF0000904D0C7
:1016A0002AE0022004B000F039B84846C4F804909B
:1016B000194D2968490504D5286820F48060286000
:1016C0000220207726B1012E09D0022E07D00CE08F
:1016D000424653460198FFF707FB012612E04146B8
:1016E0000198FFF70DFB022E0AD05846FFF71AFBB0
:1016F0004FEA0007FFF7B0FA84F800903846D1E7C8
:101700004FF480265846FFF70DFB07466869B04343
:101710006861EFE79C0000200020024030BCBDE87B
:10172000C09F0000064900204A69002A07DA054ADE
:101730008A60054A8A604969002900DA01207047F9
:101740000020024023016745AB89EFCD2DE9F04F22
:10175000002301270F24DFF8F8A073E007FA03F64F
:1017600016EA01026DD005684FEA43084FF0030CFA
:101770000CFA08FC45EA0C050560DD0800EB85085D
:10178000C346D8F820905D074FEAD56804FA08F5FB
:1017900029EA0509CBF82090856825EA0C058560C3
:1017A0004568B5434560C56825EA0C05C56023F06A
:1017B000030606EB0A05D5F808C09E07360F04FAA3
:1017C00006F909EA0C08B0F1904F06D0DFF884C0A2
:1017D000604505D14FF0010C19E04FF0000C16E008
:1017E000DFF874C0604502D14FF0020C0FE0DFF863
:1017F0006CC0604502D14FF0030C08E0DFF860C018
:10180000604502D14FF0040C01E04FF0070C0CFAD8
:1018100006FCC44515D1D5F808C02CEA090CC5F85A
:1018200008C0104E356895433560361D35689543C0
:101830003560351D2E6896432E602D1D2E6896430B
:101840002E605B1C31FA03F288D100F00DB8000065
:10185000000001400004004800080048000C004857
:10186000001000480004014030BCBDE8C08F0000FB
:1018700070B5374E05460524F07818B10020F07099
:1018800002F0CEFF012D1BD0042D1DD00124202DF0
:1018900040D0802D4FD0B5F5807F4BD17078002897
:1018A00048D140F297132B4A2BA12FA003F06CFDD7
:1018B00031A003F069FD3470BDE8704008F058BDF8
:1018C000BDE87040FFF7D0B840F27713214A22A15B
:1018D00025A003F059FD2FA003F056FD384D394ED9
:1018E00028460EF019F8641EE4B20421304600F0D8
:1018F00080F960B1002C1DD107F0BEFB40F27F13D0
:10190000144A15A118A003F03FFD2FA01BE0002CE6
:10191000E6D1F1E7707800280CD14FF4C3730D4A7B
:101920000DA111A003F030FD32A003F02DFD04F055
:101930001BF9347170BD40F28D13064A06A10AA04E
:1019400003F022FD36A0BDE8704003F01DBD00008D
:1019500000000020983E01082E2E2F5372632F6D39
:1019600061696E2E630000005B25733A20202573A9
:101970003A2025645D200000646574656374206608
:10198000696E676572206973207072657373200DCC
:101990000A0000002023232323232323232323239C
:1019A00023232323232020524553544F524520699B
:1019B0006E746572727570742E2E2E200D0A0000E2
:1019C00040420F00000C004820232323232323231D
:1019D0002323232323232323232020726573746F5F
:1019E000726520666163746F72792E2E2E200D0A47
:1019F0000000000020232323232323232323232346
:101A00002323232323232320646574656374204EDA
:101A1000464320697320636F6D696E67200D0A006D
:101A20002023232323232323232323232323232389
:101A300023232320707279696E6720746865206C97
:101A40006F636B2E2E2E200D0A000000044910B586
:101A50000A68024202D00860FFF70AFF10BD0000CA
:101A6000140401402DE9F84FDFF864B100234FF072
:101A7000010C4FF0030A4FF00F090BF1040EA0E028
:101A80000CFA03F6324072D04C68022C01D0122CB2
:101A90000ED1DC0800EB8408D8F820405D07EF0E7B
:101AA00009FA07F5AC430D69BD402543C8F820503D
:101AB00007685D0091F804800AFA05F408F003084D
:101AC000A74308FA05F848EA0708C0F800804F68FD
:101AD000012F05D0022F03D0112F01D0122F11D1C9
:101AE0008768D1F80C80A74308FA05F848EA070888
:101AF000C0F808804768B7430E79C6F300169E40C9
:101B00003E434660C668A6438C68AC403443C4601C
:101B10004C68E40054D52F4C256E45F00105256630
:101B2000246E23F0030504F0010400942A4C2E19BE
:101B3000B4689D072F0F09FA07F5AC43B0F1904F39
:101B400004D0264DA84203D1012512E0002510E063
:101B5000234DA84201D102250BE0224DA84201D11C
:101B6000032506E0204DA84202D1042501E027E02C
:101B70000725BD402543B560DBF800405D464E6853
:101B80009443F60300D514432C60DEF800407546FC
:101B90004E689443B60300D514432C600C4D0835B1
:101BA0002C684E689443F60200D514432C60084D0F
:101BB0000C352C684E689443B60200D514432C6053
:101BC0005B1C0A6832FA03F47FF45AAF00F00EB8D7
:101BD00000040140001002400000014000040048E1
:101BE00000080048000C00480010004818BCBDE880
:101BF000E08F0069084000D0012070470AB1816180
:101C0000704781627047000001480068704700001B
:101C10009800002090F84120202A24D190F84020FC
:101C2000012A20D0012280F84020242280F841207F
:101C30000268136823F0010313600268136823F439
:101C400080531360026813680B43136001680A68CD
:101C500042F001020A60202180F84110002180F842
:101C60004010084670470220704790F84120202A13
:101C700022D190F84020012A1ED0012280F8402075
:101C8000242280F841200268136823F001031360C6
:101C90000268136823F4706343EA0121116001684C
:101CA0000A6842F001020A60202180F841100021F8
:101CB00080F84010084670470220704770B5040055
:101CC00004D094F84100002510B106E0012070BD59
:101CD00084F84050204600F0C7F9242084F84100E1
:101CE0002068016821F0010101606068216820F02E
:101CF000706008612068816821F400418160E068BB
:101D00000128A06807D040F4044021688860E0689A
:101D1000022803D006E040F40040F6E721684FF4C3
:101D20000060486020684168114A114341602068A2
:101D3000C16821F40041C160D4E904010843A169EC
:101D400040EA01202168C860D4E9070108432168FE
:101D500008602068016841F001010160656420208D
:101D600084F84100256384F84250002070BD0000D3
:101D7000008000022DE9FF4F83B00446DDE91087A3
:101D800090F84100DDF848909A469346202874D197
:101D90005FEA080014D09FB194F8400001286CD08D
:101DA000012084F84000FFF72FFF06460122009033
:101DB0001923D103204601F0FDFE002871D103E074
:101DC0004FF4007060646CE0222084F841004020F1
:101DD00084F8420000256564C4F824806785656343
:101DE000CDE9009653465A462046049901F068FE14
:101DF00010B184F8405054E0618D3548FF274FF012
:101E000080784FF0007AFF2904D927853A46434667
:101E1000009005E0618D2185009094F828205346BC
:101E20002046049901F0B0FE4B46002204212046D2
:101E3000009601F0BFFEA0BB2068406A616A08708E
:101E4000606A401C6062208D401E81B22185608DD9
:101E5000401E6085608DD8B1D1B94B4600228021EB
:101E60002046009601F0A6FED8B9608DFF2805D95E
:101E700027853A464346009506E026E0608D20859A
:101E8000009594F8282053462046049901F07CFEE2
:101E9000608D0028C8D132464946204601F0B6FE82
:101EA00018B1012007B000F017B821682020C861E0
:101EB00021684A68074B1A404A6084F8410084F858
:101EC000425084F840500020ECE70220EAE700008E
:101ED0000024008000E800FE30BCBDE8C08F000098
:101EE0002DE9FF4F83B00446DDE9108790F84100EB
:101EF000DDF848909A469346202871D15FEA0800A1
:101F000014D09FB194F84000012869D0012084F8D2
:101F10004000FFF779FE0646012200901923D10305
:101F2000204601F047FE00286ED103E04FF4007018
:101F3000606469E0212084F84100402084F8420078
:101F400000256564C4F8248067856563CDE9009643
:101F500053465A462046049901F0E4FD10B184F836
:101F6000405051E0608DFF274FF080784FF0007AAD
:101F7000FF2804D927853A464346009505E0608D41
:101F80002085009594F8282053462046049901F0B6
:101F9000FBFD32464946204601F05EFEA0BB606A6A
:101FA000216800788862606A401C6062608D401E13
:101FB0006085208D401E80B22085618DD9B1D0B959
:101FC0004B46002280212046009601F0F3FDD8B94F
:101FD000608DFF2805D927853A464346009506E0DF
:101FE00026E0608D2085009594F8282053462046F1
:101FF000049901F0C9FD608D0028CAD132464946D6
:10200000204601F003FE18B1012007B000F014B81B
:1020100020682021C16120684268064B1A40426056
:1020200084F8411084F8425084F840500020ECE7D6
:102030000220EAE700E800FE30BCBDE8C08F0000E7
:102040000068074988420AD10648816D21F40011D1
:1020500081654FF4C0614FF09040FFF777BB704748
:10206000005400400010024000B500680F4987B0DE
:10207000884218D14FF4C0600090122001900120D6
:102080000290032003900420049069464FF0904092
:10209000FFF7E8FC0648816D41F400118165806D11
:1020A00000F40010059007B000BD0000005400408F
:1020B0000010024002480168491C0160704700009E
:1020C0009800002010B50024032000F099F80020AB
:1020D00000F008F808B1012401E000F01BF82046E8
:1020E00010BD000070B5054609484FF47A71002410
:1020F0000068B0FBF1F001F0E4F908B1012404E05C
:1021000000222946501E00F05BF8204670BD0000FA
:10211000180000201E4808B5016E41F0010101665B
:10212000016E01F001010091816D41F080518165E6
:10213000806D00F080500090032000F061F80022D4
:1021400011466FF00B0000F03BF8002211466FF0D3
:102150000A0000F035F8002211466FF0090000F087
:102160002FF800221146501F00F02AF800221146D5
:10217000101F00F025F800221146901E00F020F8F4
:102180000022BDE808401146501E00F019B80000BA
:102190000010024000F01F02012191404009800020
:1021A00000F1E020C0F88011704700F01F0201210B
:1021B00091404009800000F1E020C0F80011704714
:1021C000F0B40E4B1B680C46C3F30223C3F10705A2
:1021D000042D00D90425191D072901D2002300E090
:1021E000DB1E012606FA05F1491E214099409E405A
:1021F000761E16403143F0BC02F06EB80CED00E0E4
:10220000064900F0070208684FF6FF03184040EA4D
:102210000220034A10430860704700000CED00E004
:102220000000FA051649B0F5007F0868C0F34120A8
:1022300009D0022805D0086820F4C06040F480600E
:102240000860002070470128FBD0086820F4C060B7
:1022500040F4007008600B483222006850430A4A7C
:10226000B0FBF2F0401C00E0401E4A69520501D567
:102270000028F9D148694005E3D5032070470000E4
:10228000007000401800002040420F000B490A680F
:1022900022F00702921C0A6009490A6842F004020F
:1022A0000A60012807D040BF20BF20BF086820F087
:1022B00004000860704730BFF8E70000007000407D
:1022C00010ED00E00248006800F4C06070470000B4
:1022D000007000400248016841F48071016070475D
:1022E000007000400248016841F00401016070473D
:1022F000001002402DE9F84F044600270088A84D41
:102300003E46000515D5606C60B1B0F5000F04D0F5
:10231000B0F5400F2BD001270AE0E86840F4803088
:10232000E86024E00021201D01F0E8FF07001ED036
:102330003E46206880033AD5A86D4FF00008C000E3
:1023400009D4A86D40F08050A865A86D4FF0010831
:1023500000F080500090DFF84CA2DAF8001041F451
:102360008071CAF80010FFF74FFC814610E0D5F8E5
:102370008800616C20F440000843C5F88800D8E765
:10238000FFF742FCA0EB0900022801D9032705E072
:10239000DAF80000C005F3D5002F7DD04FEA07061C
:1023A000B8F1000F03D0A86D20F08050A865207808
:1023B000C00707D0D5F88800216A20F00300084341
:1023C000C5F888002078800707D5D5F88800616AAD
:1023D00020F00C000843C5F888002078400707D596
:1023E000D5F88800A16A20F030000843C5F88800BD
:1023F0002078800607D5D5F88800E16A20F440608F
:102400000843C5F888002088800507D5D5F88800DE
:10241000E16B20F440200843C5F88800208840057F
:1024200007D5D5F88800216C20F440100843C5F882
:1024300088002078400607D5D5F88800216B20F465
:1024400040500843C5F888002078000607D5D5F825
:102450008800616B20F440400843C5F8880020885C
:10246000C00507D5D5F88800A16B20F4403008439B
:10247000C5F8880020684FF0006700034FF08068BF
:1024800050D5D5F88800A16C20F040600843C5F80D
:102490008800A06CB84200E005E03BD1E86840F459
:1024A0008010E8603EE0D5F8900010F4407014D041
:1024B000A16D814211D0D5F89000D5F8901020F48C
:1024C000407041F48031C5F89010D5F8901021F497
:1024D0008031C5F89010C5F89000C00711D0FFF703
:1024E00093FB074641F2883907E000BFFFF78CFBFA
:1024F000C11B494501D9032652E7D5F89000800752
:10250000F4D5D5F89000A16D20F440700843C5F8CB
:10251000900045E7404505D10121201D01F0EEFE68
:1025200000B106462068400317D5D5F88800E16C55
:1025300020F040600843C5F88800E06CB84204D140
:10254000E86840F48010E86007E0404505D10121CB
:10255000201D01F0D3FE00B106462088400411D5AD
:10256000D5F88800216D20F040500843C5F8880058
:10257000206DB0F1805F05D10221201D01F0BEFE6B
:1025800000B106462088000406D555F8880F616D15
:1025900020F0804008432860304600F005B8000075
:1025A000001002400070004018BCBDE8E08F000041
:1025B0002DE9F0470F46050058D03F4E306800F037
:1025C0000700B84209D2306820F007003843306075
:1025D000306800F00700B84248D12878374CC0076F
:1025E0002CD06868032811D0022812D0216898B135
:1025F000490500293ADAA16821F003010143A160ED
:10260000FFF702FB804641F2883910E0216889011A
:10261000EFE721688903ECE78907EAE7FFF7F4FAB7
:10262000A0EB0801494502D90320BDE8F087A06866
:10263000696800F00C00B0EB810FEFD128788007BB
:1026400005D5A068A96820F0F0000843A0603068B4
:1026500000F00700B8420BD9306820F0070038437B
:102660003060306800F00700B84201D00120DCE79C
:102670002878400705D5A068E96820F4E0600843A1
:10268000A0602878000706D5A068296920F460506A
:1026900040EAC100A06000F0D3F8A168084AC1F385
:1026A0000311515C01F01F01C84006490860BDE8F4
:1026B000F0470020FFF716BD002002400010024046
:1026C000B03E0108180000200F2202600C4A9368F7
:1026D00003F003034360936803F0F003836093689F
:1026E00003F4E063C36092684FF4E06303EAD2024C
:1026F00002610448006800F00700086070470000AD
:1027000000100240002002400148006870470000AD
:102710001800002010B53F21016036490A685303B4
:102720004FF0000202D54FF4A02304E00B68DB0356
:1027300003D54FF48033436000E042600B68DC0750
:102740004FF0010301D0836100E082614C68C4F363
:102750000724C4610C6804F0F00404620C68E4050A
:1027600003D54FF48074C46000E0C2604C68C4F3C9
:1027700004640461D1F89040640702D505248460A4
:1027800006E0D1F89040E40701D0836000E0826069
:10279000D1F89440E40701D0436100E04261D1F8F0
:1027A0009840E40701D0436200E042620A68D20127
:1027B00002D50222826200E08362CA6802F003024C
:1027C000C262CA68C2F30212521C0263CA68C2F330
:1027D00006224263CA68C2F34152521C5200C263CD
:1027E000CA68C2F34162521C52000264C968C90E31
:1027F000816310BD001002400548064900688968E1
:10280000054AC1F30221515C01F01F01C840704725
:102810001800002000100240F03E0108054806495B
:1028200000688968054AC1F3C221515C01F01F01AB
:10283000C84070471800002000100240F03E010818
:1028400070B52549002318468A68CC6812F00C023E
:1028500004F00306214C4FEA640509D00C2A05D088
:10286000042A26D0082A00D1284670BD012E10D196
:102870000B681B0704D4D1F89430C3F3032302E0A0
:102880000B68C3F30313164E56F823307AB10C2AA3
:10289000EBD1C86800F00302C868C0F30210401C06
:1028A000022A08D0032A09D0B3FBF0F008E018464A
:1028B00070BD204670BDB4FBF0F001E0B5FBF0F058
:1028C000CA68C968C2F306225043C1F34161491C7A
:1028D0004900B0FBF1F070BD001002400024F4008C
:1028E000C03E01082DE9F84305007CD0FD4CA068EE
:1028F00000F00C06E06800F003072878C00662D5F7
:1029000076B10C2E01D1012F0AD0A86900282068C9
:1029100078D040F001002060FFF776F9804659E05A
:102920002068800702D5A8690028DED0296A2068BF
:10293000000703D5206800F0F00004E0D4F894000C
:10294000F02202EA1010814216D9084601F06CFD0F
:10295000002848D1206840F0080020602068296ADB
:1029600020F0F000084320606068E96920F47F40AF
:1029700040EA0120606015E0206840F00800206017
:102980002068296A20F0F000084320606068E96947
:1029900020F47F4040EA01206060286A01F044FD95
:1029A0000028D6D1FFF74CFFA168CF4AC1F303112D
:1029B000515C01F01F01C840CC4908600020FFF7BE
:1029C00091FB00287ED12EE0FFF71EF9A0EB080056
:1029D000022878D820688007F6D5206840F00800E3
:1029E0002060206801E0BBE00CE0296A20F0F000E4
:1029F000084320606068E96920F47F4040EA0120D4
:102A0000606010E020F001002060FFF7FDF88046D4
:102A100006E000BFFFF7F8F8A0EB08000228D8D8BE
:102A200020688007F6D42878C00740D0082E18D038
:102A30000C2E01D1032F14D06868B0F5803F17D059
:102A4000B0F5A02F206817D020F4803020602068D7
:102A500020F4802020606868E0B1FFF7D5F8804658
:102A600014E02068800322D56868002878D01EE032
:102A7000206840F48030EDE740F480202060F7E7E4
:102A8000FFF7C2F8A0EB08006428A2D820688003F2
:102A9000F6D50CE0FFF7B8F8804605E0FFF7B4F88C
:102AA000A0EB0800642894D820688003F6D4287826
:102AB00080073BD5042E11D00C2E01D1022F0DD052
:102AC000E86801E05EE1B8E0002820681ED040F42C
:102AD00080702060FFF798F807460CE020684005FA
:102AE0000CD5E8680028C1D008E000BFFFF78CF8DB
:102AF000C01B022893D820684005F7D56068297C60
:102B000020F0F85040EA016060600FE020F480702F
:102B10002060FFF779F8074605E000BFFFF774F87B
:102B2000C01B0228B1D820684005F7D428780007D8
:102B300029D568690028D4F8940012D040F001002B
:102B4000C4F89400FFF760F8074604E0FFF75CF86C
:102B5000C01B022871D8D4F894008007F6D512E083
:102B600017E120F00100C4F89400FFF74DF8074684
:102B700005E000BFFFF748F8C01B02285DD8D4F875
:102B800094008007F6D42878400766D5A06D00270A
:102B9000C00008D4A06D40F08050A065A06D012752
:102BA00000F08050009052480168C90512D40168B5
:102BB000814641F480710160FFF726F8804605E008
:102BC000FFF722F8A0EB0800022836D8D9F8000059
:102BD000C005F5D5A868012816D00528D4F89000BE
:102BE00017D020F00100C4F89000D4F8900020F035
:102BF000040000BFC4F89000A86841F28839C0B151
:102C0000FFF702F880460FE0D4F8900040F0010092
:102C1000F0E740F00400C4F89000F5E7FEF7F4FF99
:102C2000A0EB0801494508D8D4F890008007F5D5F5
:102C30000EE0FEF7E9FF804606E07CE0FEF7E4FFE9
:102C4000A0EB0801494576D8D4F890008007F5D468
:102C50001FB1A06D20F08050A0652878800628D58F
:102C6000686A0028D4F8980012D040F00100C4F837
:102C70009800FEF7C9FF074605E000BFFEF7C4FF56
:102C8000C01B02287DD8D4F898008007F6D510E044
:102C900020F00100C4F89800FEF7B6FF074604E0F4
:102CA000FEF7B2FFC01B02286BD8D4F8980080074B
:102CB000F6D4A86AF0B30C2E6BD00228206820F05E
:102CC0008070206018D02068000103D4E06820F0F4
:102CD0000300E060E06807490840E060FEF794FF09
:102CE000054651E000100240B03E010818000020E7
:102CF00000700040FFFFEEFEFEF786FF064604E090
:102D0000FEF782FF801B02283BD820688001F7D4A1
:102D1000286B55F82C1F000110380843298A1E4AD9
:102D2000490802EB4151AA6841EA02210843297D82
:102D3000490801E02BE024E04FF07E4202EB4161C4
:102D40000843297B40EAC160E060206840F0807061
:102D50002060E06840F08070E060FEF755FF0546B7
:102D600005E000BFFEF750FF401B022809D820688D
:102D70008001F7D50BE000BFFEF746FF401B02289D
:102D800002D90320BDE8F88320688001F4D4002034
:102D9000F8E70120F6E700000000E0FF10B500684A
:102DA0000B4641680D480140080CD870C1F304245B
:102DB0005C7001F03F049C70C1F34231197052B94C
:102DC00001F070FBD870587801F06CFB587098785F
:102DD00001F068FB9870002010BD00003FFFFF006D
:102DE00010B50B460168896A596001680969C1F329
:102DF0000E019960006801680D480140C1F305406B
:102E00001870C1F306245C7001F07F049C70890D7A
:102E1000D97052B901F046FB1870587801F042FBA6
:102E20005870987801F03EFB9870002010BD0000AB
:102E30007F7F7F002DE9F04104004FF0010553D062
:102E400094F82100002528B9002084F820002046AD
:102E500000F050F8022084F821002168CA2048625E
:102E6000216853204862204601F032FBFF260427E8
:102E700018BB206881681E4A1140816021688868FB
:102E80006268A369104322691A431043886021686D
:102E9000E068086120680169228941EA0241016114
:102EA0002068C16821F08001C160206880688006C8
:102EB00009D4204600F016F928B12068466284F84B
:102EC0002170012510E02068C16C21F00301C1646C
:102ED0006169E06908432168CA6C1043C8642068CE
:102EE0004662012084F821002846BDE8F0810000F8
:102EF000BFFF8FFF00680549884205D1044850F89C
:102F0000901F41F40041016070470000002800401C
:102F1000001002402DE9F047044690F820000B46CF
:102F2000012820D04FF0010984F82090022084F875
:102F30002100DAB19878D97840EA014558781978B3
:102F4000000240EA413005432168CA2048622168F6
:102F500053204862204601F0BBFA0026FF274FF0BD
:102F6000040860BB1AE00220BDE8F0875878C1066B
:102F700003D500F0EF000A305870D87801F09BFAC2
:102F80000504587801F097FA45EA0025987801F091
:102F900092FA0543187845EA4035D5E710480540D0
:102FA000206845602068C16821F08001C160206808
:102FB000806880060BD4204600F094F838B1206871
:102FC000476284F8218084F820600120CCE72068E3
:102FD000476284F8219084F820600020C4E7000054
:102FE0003FFFFF002DE9F047044690F8200092468D
:102FF0000D46012815D04FF0010884F820800220EA
:1030000084F821002168CA20486221685320486260
:10301000204601F05DFAFF274FF004090026E8BBC7
:1030200002E00220BDE8F0872068BAF1000F806856
:103030004FEA406005D0002817DA287801F032FA0C
:1030400014E0002800DBEE70287801F034FA030465
:10305000687801F030FA43EA0023A87801F02BFAEF
:103060000343E87843EA80500AE0EE70A8782978B4
:10307000EA7840EA01406978090241EA825108434E
:1030800017490840216808602068816821F4802180
:103090008160D5E903010843216800E00FE08A68F8
:1030A000104388602068C16821F08001C1602068F9
:1030B000806880060BD4204600F014F838B12068F0
:1030C000476284F8219084F820600120AAE72068F4
:1030D000476284F8218084F820600020A2E7000085
:1030E0007F7F7F0070B504460068C16821F0A001B1
:1030F000C160FEF789FD05464FF47A7607E000BF10
:10310000FEF782FD401BB04201D9032070BD20684C
:10311000C0688006F4D5002070BD2DE9F0410400A0
:1031200005D00025A56294F85D0018B107E00120E4
:10313000BDE8F08184F85C50204600F05BF8022383
:1031400084F85D302068016821F040010160E0688A
:103150004FF4E066B04201D9002101E04FF4805104
:10316000B0F5706F02D0B04200D0A562276B01228B
:1031700027B9B04201D9236300E02263D4E90103F7
:103180001843D4E9043633431843238B03F4007304
:103190001843E3691843236A1843A36A1843236852
:1031A0001860636B606AA66918430427E36807EA3E
:1031B000164633431843084321684860256684F85F
:1031C0005D200020B4E7000000680749884209D16B
:1031D0000648816D21F4804181654FF460410448C7
:1031E000FEF7B4BA704700000038004000100240FB
:1031F0000004004800B500680E4987B0884217D126
:103200000D48816D41F480418165806D694600F40F
:10321000804005904FF46040009002200190002013
:10322000029003200390052004900448FEF71AFC46
:1032300007B000BD00380040001002400004004804
:103240002DE9F05F044690F85C0000270A9E1D46B9
:1032500092468B464FF0010901280ED0012084F8D8
:103260005C00FEF7D1FC804694F85D00616801289F
:103270000CD0B1F5827F07D102E0022000F011B935
:10328000A16809B9042801D0022700E1BBF1000FB1
:1032900024D0BAF1000F21D005B394F85D000428C2
:1032A00002D0052084F85D0000202066C4F840A00C
:1032B000A4F84650A4F84450C4F838B0E587A58770
:1032C000E0642065E0684FF4E061884201D8012D98
:1032D00006D92068426822F4805205E00127D6E032
:1032E0002068426842F480524260206802685206B8
:1032F00003D4026842F040020260E06888426068DD
:1033000045D908B1012D3AD1A06B21680088C86069
:10331000A06B801CA063E08F401EE0872FE0206838
:10332000816889070FD5E18F69B1B9F1010F0AD121
:10333000A16B0988C160A06B801CA063E08F401E58
:10334000E0874FF0000920688168C9070FD0B4F802
:10335000461061B1C068216C0880206C801C20641C
:10336000B4F84600401EA4F846004FF00109FEF7ED
:103370004BFCA0EB0800B04201D3701C75D1E08F6C
:103380000028CCD1B4F846000028C8D176E008B1B6
:10339000012D6CD1E08F0128A06B08D9216800882D
:1033A000C860A06B801CA063E08F801E07E02168CE
:1033B00000780873A06B401CA063E08F401EE0877C
:1033C00055E02068816889071AD5E18FC1B1B9F14C
:1033D000010F15D1E18F0129A16B07D90988C160BF
:1033E000A06B801CA063E08F801E06E0097801734B
:1033F000A06B401CA063E08F401EE0874FF00009E7
:1034000020688168C90728D0B4F8461029B3B4F8F9
:103410004610012914D9C068216C0880206C801CDA
:103420002064B4F84600801EA4F84600B4F84600B4
:10343000012810D82068416841F4805141600AE0B9
:10344000007B216C0870206C401C2064B4F846009E
:10345000401EA4F846004FF00109FEF7D5FBA0EB93
:103460000800B04202D3701C01D018E0BEB1E08F5A
:103470000028A6D1B4F846000028A2D14246314621
:10348000204601F013F910B1012720202066012009
:1034900084F85D00002084F85C003846EEE60327DF
:1034A000F5E730BCBDE8C09F4FF0E0210428086973
:1034B00003D020F004000861704740F00400FAE7F0
:1034C000704710B5401EB0F1807F01D3012010BDC0
:1034D0004FF0E02460610F21601700F0FDFE002036
:1034E000A06107202061002010BD10B5FFF7E8FFA4
:1034F00010BD7047704710F8711F4078084370473F
:103500002DE9F04102680446D0691168936810F013
:103510000F0F4FF000055BD003F0010601F4907728
:10352000374369D0C70707D0CF0505D501271762F4
:10353000626F42F001026267820708D5DA0706D09F
:10354000276802223A62626F42F004026267420711
:1035500008D5DA0706D0236804221A62626F42F0A7
:103560000202626702070AD501F02002324306D048
:10357000236808221A62626F42F008026267626F73
:10358000002A32D0800605D5880603D5216E09B100
:1035900020468847606F000703D420688068400693
:1035A00025D5204601F0CEFB20688168490619D553
:1035B000816821F040018160E06E98B1204981630B
:1035C000E06EFDF7B4FF00280FD0E06E816B06E0DF
:1035D000860611D58E060FD5216E1EE02046BDE869
:1035E000F04108472046FFF785FFBDE8F0812046FF
:1035F000FFF780FF6567F8E7C60209D55B0207D5CC
:103600004FF4801010622046BDE8F041FFF771BF13
:10361000030605D50B0603D5616E0029DED1E4E76C
:103620004006E2D54806E0D51168204621F0400169
:103630001160202184F87110656600F0EBF9D4E781
:10364000314D000810B5040003D094F8710010B19A
:1036500007E0012010BD002084F87000204600F033
:1036600063F8242084F871002068016821F00101CA
:103670000160204601F0D2FB0128EBD0606A10B156
:10368000204601F0C3FA2068416821F4904141606E
:103690002068816821F02A0181602068016841F07A
:1036A000010101602046BDE8104001F013BB00009D
:1036B00010B5174A01681748914209D1016E21F4EB
:1036C00080410166BDE81040C0211348FEF73EB8B6
:1036D000124A91420AD1816D21F4003181650C2199
:1036E0004FF09040FEF732F826200CE00C4A914251
:1036F0000DD1816D21F4802181654FF4406109482D
:10370000FEF724F82720BDE81040FEF743BD10BDAA
:10371000003801400010024000040048004400400E
:10372000004800400008004830B52D4D04682D4881
:1037300002210323072287B0AC4214D1046E44F463
:1037400080440466006E049200F480400590C0201E
:10375000CDE900010020CDE9020369462248FEF7C9
:1037600081F907B030BD214DAC4219D1846D44F4CC
:1037700000348465806DCDE9021300F400300590BB
:103780000C20CDE90001049269464FF09040FEF70D
:1037900069F9002211462620FEF712FD26201BE0C3
:1037A000134DAC42DDD1846D44F480248465806D7A
:1037B000CDE9021300F4802005904FF44060CDE97C
:1037C0000001049269460B48FEF74CF900221146AD
:1037D0002720FEF7F5FC2720FEF7E7FCC1E70000F5
:1037E000003801400010024000040048004400403E
:1037F000004800400008004830B590F87230202B97
:103800004AD1B1B1AAB190F87030012B44D0012354
:1038100080F870304165A0F85820A0F85A200022A6
:1038200002661D038168FF23A94207D1016911B116
:103830000CE0012030BD40F2FF110DE07F2419B1F2
:10384000B1F1805F05D009E0016901BBA0F85C30EF
:1038500004E00169D9B13F21A0F85C104267222140
:1038600080F8721001688B6843F001038B608168F7
:10387000A94201D1016969B10849016680F8702047
:103880000068016841F490710160002030BDA0F82B
:103890005C40E3E70249F0E7022030BDC14D00087B
:1038A000654D000870B52949294C88421ED16389AD
:1038B000180410D42046274D40895E04C0F30D0241
:1038C00000F1010081B204F10600007807D5F52867
:1038D000A85401D0618170BD43F4004004E0F52894
:1038E000F9D1A85441F48040608170BD1A498842E2
:1038F000FBD120890104F8D41549420401F10501E6
:103900004FF0000509780FD50A2907D1B0F5804F8F
:1039100004D012A11248FCF7B9FC08B1258170BD92
:10392000208940F400400EE00D290AD0C0F30D02BA
:103930000B4B401C80B299542081B0F5806FEDD2C2
:1039400070BD40F48040208170BD00008C070020D5
:1039500000000020DC040020040800204F4B000081
:10396000DC0000202DE9F843044690F871001F4662
:1039700016460D4620284BD1C5B1BEB194F8700053
:10398000012845D0012084F870004FF00008C4F8E9
:103990007480212084F87100FEF736F9A4F8506095
:1039A0008146A4F852604FF4805615E00120BDE82E
:1039B000F8838021204601F05BFBD8B9A068B042B3
:1039C00001D12069C0B115F8010B21680885B4F850
:1039D0005200401EA4F85200B4F852004B464FF07B
:1039E000000200970028E4D14FF04001204601F08A
:1039F0003FFB30B10320DAE735F8020BC0F30800D3
:103A0000E3E7202084F8710084F870800020CEE77E
:103A10000220CCE77047FEE701688A69D24392072B
:103A200001D400228A6200688169C943C90703D0B2
:103A3000816941F001018161704700002DE9F04189
:103A40000446006890460E468069C043C00633D4E1
:103A50000025202720688069C043800615D5701C8A
:103A6000F8D0FEF7D1F8A0EB0800B04201D8002E44
:103A7000F0D154F8440F40F0200044F80409677076
:103A8000A57025700120BDE8F08121681020C86173
:103A90002068C7612046FFF7BFFF54F8440B416818
:103AA000064A11404160206840F0040044F82009B3
:103AB0006777A5772577E5E70020E4E700E800FED3
:103AC0002DE9F84304461646DDE908971448984660
:103AD000DAB200900023204600F056F83A464946F4
:103AE000204600F0B9F8B8B9F5B2B8F1010F08D026
:103AF0002168300A88623A464946204600F0ACF810
:103B000050B9206885624B4600224021204600972C
:103B100000F050F8002800D00120BDE8F883000034
:103B2000002000802DE9F8430446164615489846C3
:103B3000DDE90897DAB2C3020090204600F024F8CD
:103B40003A464946204600F087F8B8B9F5B2B8F1D0
:103B5000010F08D02168300A88623A46494620465B
:103B600000F07AF850B9206885624B460022802127
:103B70002046009700F01EF8002800D00120BDE884
:103B8000F883000000200080F0B50568059C686897
:103B90004FF48066064FC1F3090106EA545641EA24
:103BA00002413E431943B043214308436860F0BDDE
:103BB000FF63FF032DE9F0411D4617460E460446FC
:103BC000DDF8188008E0681C06D0FEF71DF8A0EBB1
:103BD0000800A8420BD855B12068806936EA000079
:103BE00012D00020B842EED00020BDE8F08154F899
:103BF000440F40F0200044F80409202060700020A9
:103C0000A07020700120F0E70120EBE770B51646A8
:103C10000D4604460DE0324629462046FFF70EFFCA
:103C200008B1012070BDFDF7EFFF801BA84207D847
:103C300035B120688069C0438006ECD4002070BD97
:103C400054F8440F40F0200044F80409202060702C
:103C50000020A0702070E4E770B516460D460446BB
:103C60000FE0324629462046FFF7E8FE08B1012062
:103C700070BD681C05D0FDF7C7FF801BA84207D8A0
:103C800035B120688069C0438007EAD4002070BD48
:103C900054F8440F40F0200044F8040920206070DC
:103CA0000020A0702070E2E710B500F0A1FC0D4CE0
:103CB000012202212046FDF7A1FF012211462046E4
:103CC000FDF79CFF00BF00BF002202212046FDF748
:103CD00095FF00BF00BF00222046BDE81040012133
:103CE000FDF78CBF0008004810B500F081FC0A4CBD
:103CF000002202212046FDF781FF00BF012211466C
:103D00002046FDF77BFF00BF00BF01222046BDE833
:103D100010400221FDF772BF0008004800EB81004F
:103D2000006E00F0F84070478068C0F3C000704734
:103D30008068C0F380007047C06810F4406F01D005
:103D40000020704701207047042310B503EAD153C7
:103D50001844C1F3045107248C4043698A40A343AB
:103D60001343436110BD00EB8100016E21F000415F
:103D7000114301667047000070B5012214034FF033
:103D8000904521462846FDF739FF0F4E00220121BC
:103D90003046FDF733FF0D480BF0BEFD00222146F3
:103DA0002846FDF72BFF002201213046FDF726FFB4
:103DB0000F23074A07A10EA001F0E6FABDE8704004
:103DC0000FA001F0E1BA000000040048F049020031
:103DD000148C01082E2E5C557365725C44726976F2
:103DE0006572735C7372635C68736A30382E63004B
:103DF0005B25733A202025733A2025645D2000005E
:103E0000206C6F636B2E2E2E2E2E200D0A000000CC
:103E100030B51B4887B019490024C0E900148460FC
:103E20000425C460C0E90445047644760121C161DB
:103E300080F820408462C46280F83040446380F897
:103E40003840FDF7C5F918B14B210EA001F060FA1A
:103E5000104800900620CDE901047F200594CDE9AB
:103E6000030569460648FCF7B5FF002803D0582132
:103E700004A001F04DFA07B030BD0000000004506E
:103E8000DC0500202E2E2F5372632F6164632E6396
:103E9000000000001000C0102DE9F04F6B4887B003
:103EA000C16C41F00401C164C16C01F004010591D1
:103EB000C16C41F08001C164C16C01F080010591C9
:103EC000C16C41F00101C164C16C01F001010591B7
:103ED000C16C41F00201C164C16C01F002010591A5
:103EE000C16C41F00801C164C06C002200F0080000
:103EF000059041F247015648FDF780FE49F602174A
:103F00004FF09048002239464046FDF777FEDFF833
:103F100044B1002240F227315846FDF76FFE4FF4BE
:103F2000805A012251465846FDF768FE42F21020A1
:103F30000326CDE900060024694602944448FDF7B3
:103F400091FD0B20CDE90006694602944248FDF739
:103F500089FD0125CDE90065CDE9024669463C4869
:103F6000FDF780FD44200090CDE9015469463848B2
:103F70000394FDF777FDDFF8E4900095CDE9019417
:103F800069464046FDF76EFDCDE900750227CDE993
:103F9000027469464046FDF765FDF020CDE9000654
:103FA000694602944046FDF75DFDDFF8B4804FF4AA
:103FB0009070CDE90008694602972548FDF752FD4B
:103FC000212003948DE8A10069465846FDF74AFD7B
:103FD00041F206300090CDE90154694658460394F9
:103FE000FDF740FD40F61840CDE900066946029411
:103FF0005846FDF737FD8020CDE900086946029755
:104000001348FDF72FFDCDE90274CDE900A56946FF
:104010000F48FDF727FD0420CDE900096946029508
:104020001048FDF71FFD002211460620FEF7C8F8D4
:10403000002211460820FEF7C3F8002201211720B4
:10404000FEF7BEF807B000F00FB800000010024005
:104050000008004800040048001C0048000021102F
:1040600000001110000C004830BCBDE8C08F0000FB
:10407000164810B51449016015494160002101221C
:10408000C0E90212016141618161C1610162FDF714
:1040900015FE18B142210FA001F03AF900210B489A
:1040A000FDF7B8FD18B149210AA001F031F900214E
:1040B0000648FDF7DAFD002805D0BDE81040502184
:1040C00004A001F025B910BD0054004040060020B6
:1040D000EC9C90102E2E2F5372632F6932632E6347
:1040E0000000000010B5214886B01F490024C0E937
:1040F00000147F218160FF21C0E9031444618461C1
:10410000C461FEF797FE18B1432119A001F000F930
:104110008DF800408DF801408DF802400394012293
:10412000694612480494FEF75DFF18B14F2110A0B4
:1041300001F0EEF805208DF8140003208DF815002D
:1041400015208DF8160019208DF81700012205A9F9
:104150000648FEF7DFFE002803D0592104A001F035
:10416000D7F806B010BD0000002800408C060020E3
:104170002E2E2F5372632F7274632E630000000083
:10418000134810B5114901604FF48271416000215C
:104190004FF4E062C0E902124FF400720161C0E91D
:1041A00005123822C0E9072107224162C0E90A123C
:1041B000016308214163FEF7B0FF002805D0BDE888
:1041C0001040472103A001F0A3B810BD0038004003
:1041D000B00600202E2E2F5372632F7370692E634A
:1041E000000000000E4810B50C4901604FF4E131A9
:1041F0004160002181600C22C160C0E9041281612C
:10420000C16101624162FFF71DFA002805D0BDE8D7
:104210001040472103A001F07BB810BD00380140D9
:10422000140700202E2E2F5372632F757361727442
:104230002E6300000E4810B50C4901604FF4E131C7
:104240004160002181600C22C160C0E904128161DB
:10425000C16101624162FFF7F5F9002805D0BDE8B0
:1042600010405C2103A001F053B810BD0044004091
:104270008C0700202E2E2F5372632F75736172747A
:104280002E6300000E4810B50C4901604FF4E13177
:104290004160002181600C22C160C0E9041281618B
:1042A000C16101624162FFF7CDF9002805D0BDE888
:1042B0001040712103A001F02BB810BD0048004050
:1042C000040800202E2E2F5372632F7573617274B1
:1042D0002E630000FEE770470907090E002806DA82
:1042E00000F00F0000F1E02080F8141D704700F18D
:1042F000E02080F800147047704700002DE9F0417D
:10430000444C05468846E0680026810728680DD0A1
:10431000E16801F00301814216D1A8B1E068696843
:10432000C0F30210401C88420ED120E0012804D0C6
:10433000022805D0032807D108E02168890701E099
:1043400021684905002907DB01265FE02168890310
:1043500002D421684903F5E7E1686A686FF00F034A
:1043600021F0730103EB021211430143E160206865
:1043700020F080602060FDF747FC074605E000BFA5
:10438000FDF742FCC01B022837D820680001F7D493
:10439000B8F1000F18D0B8F1010F1DD0287D4FF0F3
:1043A0007E41400801EB4060A96840EA0120216994
:1043B000194A114008432061206840F08060206065
:1043C000FDF722FC07461AE0A868297B000240EAB4
:1043D000C1602169114AECE7288A1149400801EBC4
:1043E0004050A96840EA012021690E4AE1E700BF78
:1043F000FDF70AFCC01B022801D9032606E020684D
:104400000001F5D52069A969084320613046BDE85F
:10441000F081000000100240FF80FFF9FF80FF07DD
:104420000000E0FFFF809FFFF8B51C4D064600240A
:10443000A86DC00002D5FDF745FF0DE0A86D40F066
:104440008050A865A86D00F080500090FDF73AFFFD
:10445000A96D21F08051A965B0F5007F04D0802EB0
:1044600007D94FF003040AE0802E08D9A02E01D806
:1044700004E001D1022402E0702E00D1012408489A
:10448000016821F0070121430160006800F0070086
:10449000A04201D00120F8BD0020F8BD001002406C
:1044A00000200240010901EB810100F00F0000EB48
:1044B0004100C0B270470022014602E00A39C9B289
:1044C000521C0A29FAD2100741EA10607047000016
:1044D00070B504460068C168490614D44FF0FF3136
:1044E000C160FDF791FB05464FF47A7607E000BF07
:1044F000FDF78AFB401BB04201D9032070BD206844
:10450000C0684006F4D5002070BD0000F8B50C4E20
:104510000C468DF800004FF48055002229463046A5
:10452000FDF76CFB684600F0F5FE9DF80100607039
:10453000012229463046FDF761FB0020F8BD00004E
:10454000000400487047000038B50B4D8DF800009E
:104550008DF801104FF48054002221462846FDF7C3
:104560004DFB684600F0F4FE012221462846FDF787
:1045700045FB002038BD00000004004810B50A20AB
:104580000BF0CAF9094C002204212046FDF736FB46
:104590000A200BF0C1F9012204212046FDF72EFB71
:1045A000BDE810400A200BF0B7B900000008004831
:1045B00070B50E4C002280212046FDF71FFB40F213
:1045C000DC5528460BF0A8F9012280212046FDF792
:1045D00015FB28460BF0A0F9002280212046FDF7AC
:1045E0000DFB2846BDE870400BF096B90008004866
:1045F00000B585B0022000900120019002900320B8
:10460000039069460248FDF72DFA05B000BD000091
:104610000008004811B583B0FF208DF80400642025
:104620000090012301AA03A90948FEF709FE04002E
:1046300009D05123074A08A112A000F0A5FE214687
:1046400014A000F0A1FE9DF8040004B010BD00000D
:10465000B00600206C9001082E2E5C557365725CCC
:1046600072633636335C706853756242616C5C739A
:1046700072635C52656743746C5F53706948772E50
:10468000630000005B25733A202025733A202564DF
:104690005D200000737069322073656E642066616E
:1046A000696C202564200D0A00000000F8B515464D
:1046B0000E460B460092044600224FF4C05100F013
:1046C00019F888B93346002280212046009500F071
:1046D0005CF848B9334600224FF4C061204600958B
:1046E00000F008F8002804D0206E40F0200020667A
:1046F0000320F8BD2DE9F0471D4617460E46044637
:104700004FF4C068DDF820900CE0464501D107B9B0
:10471000007B681C06D0FDF777FAA0EB0900A842E1
:1047200008D23DB1206881683140B942EDD1002006
:10473000BDE8F0872068416821F0E00141606068D1
:10474000B0F5827F0BD1A068B0F5004F02D0B0F574
:10475000806F04D12068016821F040010160A06AE7
:10476000B0F5005F09D12068016821F400510160B3
:104770002068016841F400510160012084F85D0067
:10478000002084F85C000320D2E72DE9F0411D46AB
:1047900017460E460446DDF8188008E0681C06D06F
:1047A000FDF732FAA0EB0800A8420BD255B1206801
:1047B000806836EA000030D00020B842EED10020F8
:1047C000BDE8F0812068416821F0E0014160606847
:1047D000B0F5827F0BD1A068B0F5004F02D0B0F5E4
:1047E000806F04D12068016821F040010160A06A57
:1047F000B0F5005F09D12068016821F40051016023
:104800002068016841F400510160012084F85D00D6
:10481000002084F85C000320D2E70120CDE7704738
:10482000F0B5B1B0142115A8FBF719FD442103A878
:10483000FBF715FD824C00251495A06D40F08050CB
:10484000A065A06D00F08050009003A8FDF762FF06
:1048500002270D9703A80395FEF744F820B14FF403
:104860002C7178A000F054FD14A915A8FDF72CFFB9
:1048700001260320CDE9156015A81499FDF798FECF
:1048800020B140F2BD216FA000F042FD7548249593
:104890001A904FF080502E9026950015309022955A
:1048A0001020CDE91C6023950720CDE91E071B963B
:1048B0004FF08070CDE920701AA8FDF71BFD20B1E4
:1048C00040F2D3215FA000F023FDFFF7E5FA00F0EE
:1048D0006BFCA06D40F40010A065A06D00F400100A
:1048E0000090FFF7C5FB6048FDF7BEFBA06D40F4EC
:1048F0008040A065A06D00F480400090FFF740FC70
:104900005A48FEF777FCE06C40F40050E064E06C3D
:1049100000F400500090FFF77BFA5548FCF72EFD9D
:104920005348FBF7D3FF05F079FE07F089FB06F04B
:1049300051FD38200AF0BEFCFFF720FE05F074FEA2
:1049400007F05AFB04F056FE00224A494A48FEF797
:1049500047FA002249494848FEF720FA40F2EE2380
:10496000474A38A147A000F00FFD4248434D8278E6
:10497000417800788DE80700AB786A78E97845A03F
:1049800000F002FD0AF056FFBCEEC00A4A4C40F2AD
:10499000F1233B4A84ED000A2AA13AA000F0F4FC7E
:1049A00046A0216800F0F0FC20680EF0B7FF494CEB
:1049B00040F2F323324A207022A132A000F0E4FC3E
:1049C000217845A000F0E0FC207838B93E200AF0BC
:1049D000BFFC01F013FA46480AF09EFF01F0A8FB65
:1049E000207801F0F9F9AA786978E87801F072FD89
:1049F000404C0E22404821680AF010FF20680188D0
:104A000009B93E490E70007A0AF0A2FC01200AF0B2
:104A10009FFC4FF0904401212046FDF7EAF8012861
:104A2000F9D15A213A20FCF7C1F800212120FCF7E6
:104A3000BDF800213A20FCF7B9F831B0F0BD000014
:104A4000001002402E2E5C557365725C4170706CD4
:104A500069636174696F6E5C7372635C6D656E75BA
:104A60002E6300004740020040060020B0060020F0
:104A7000DC050020C80000208C0600201300002068
:104A8000688C01085B25733A202025733A20256441
:104A90005D2000003230253032642D253032642D07
:104AA0002530326420253032643A253032643A258C
:104AB000303264200D0A00000C0000202062617476
:104AC000746572795F76616C75653A256420200D96
:104AD0000A00000010000020206261747465727981
:104AE0005F636C6173733A256420200D0A00000037
:104AF000C0C62D005C00002000200308010000203B
:104B000010B5FDF7D7FABDE81040FEF7EEBC000087
:104B1000F0B5ADB0FDF7DEFB294850F8901F21F04D
:104B20001801016014201790602001251F900024B7
:104B30001995CDE91D540226CDE921650727CDE958
:104B4000257628202796CDE9235017A8FDF7CAFE21
:104B50000F2028900320CDE929042B94042128A8B4
:104B60002C94FDF725FD17480A940090280714900F
:104B70000C940015169008941020CDE90250019570
:104B800000050994CDE90660CDE904766846FDF795
:104B9000B1FB6802FDF746FBFDF7B6FD4FF47A71F5
:104BA000B0FBF1F0FEF78DFC0420FEF77DFCFDF775
:104BB00099FB00221146501EFDF702FB2DB0F0BDFF
:104BC00000100240474002000D48016841F47001A6
:104BD00001600C48016841F0010101600021816021
:104BE0000268094B1A4002608214C260026822F413
:104BF0008022026081610249C003803908607047E9
:104C000088ED00E000100240FFFFF6EA90F8241063
:104C1000C90706D001684A68836A22F400321A4341
:104C20004A6090F82410890706D501684A68C36A6B
:104C300022F480321A434A6090F82410490706D5BE
:104C400001684A68036B22F480221A434A6090F894
:104C50002410090706D501684A68436B22F4004214
:104C60001A434A6090F82410C90606D501688A687C
:104C7000836B22F480521A438A6090F824108906CC
:104C800006D501688A68C36B22F400521A438A6011
:104C900090F82410490611D501684A68036C22F483
:104CA00080121A434A60016CB1F5801F06D1016879
:104CB0004A68436C22F4C0021A434A6090F82410F8
:104CC000090606D501684A68806C22F40022024376
:104CD0004A607047F8B5002604464667FCF794FF23
:104CE0000546206800686FF07E47000708D52B4610
:104CF00000224FF400112046009700F0B9F960B986
:104D00002068006840070AD52B4600224FF4800136
:104D10002046009700F0ACF908B10320F8BD202030
:104D200084F8710084F8720084F870600020F8BD87
:104D300010B5806A0021A0F85A10A0F85210FEF7B2
:104D4000D9FB10BD01680A6822F490720A600168FC
:104D50008A6822F001028A60202180F87210002106
:104D60000166704710B5B0F85C2090F872300168A9
:104D7000222B04D0088B40F00800088310BD898CDA
:104D8000436D11401980416D891C4165B0F85A107E
:104D9000491E0904090CA0F85A10EFD101680A68ED
:104DA00022F490720A6001688A6822F001028A6027
:104DB000202180F8721000210166FEF773FD10BDFE
:104DC00010B5B0F85C2090F872300168222B04D046
:104DD000088B40F00800088310BD898C1140426D9B
:104DE000531C43651170B0F85A10491E0904090C90
:104DF000A0F85A10F0D101680A6822F490720A6093
:104E000001688A6822F001028A60202180F872100D
:104E100000210166FEF746FD10BD00002DE9F041BE
:104E20000446016880682369E669184363691025B0
:104E3000002733431843844A0B68844E33400343AE
:104E40000B6020684168E36821F4405119434160D8
:104E50002168A069914201D0236A18438B6823F42A
:104E6000306303438B607A4B21687A4899420DD1B5
:104E7000D0F8880010F0030006D0012839D00228AD
:104E800035D0032838D136E0012535E0724B994200
:104E90000BD1D0F8880010F00C0026D0042828D0C0
:104EA000082824D00C2827D125E06C4B99420BD13F
:104EB000D0F8880010F0300017D0102819D0202822
:104EC00015D0302818D116E0914215D1D0F88800BD
:104ED00010F4406009D0B0F5806F0AD0B0F5006FD3
:104EE00005D0B0F5406F07D105E0002504E00225AC
:104EF00002E0042500E00825594B00264FF400404D
:104F000091423DD135B1022D07D0042D07D0082D97
:104F100010D107E0FDF770FC03E0184602E0FDF752
:104F20008FFCA8B3626802EB4201814202D8B0EB69
:104F3000023F01D9012774E0DFF828815DB1022D1D
:104F40000CD0042D13D0082DF4D150082905401899
:104F500046F1000105E0FDF74FFC0AE05008424928
:104F6000F5E70023FBF72EF9A0F5407155E0FDF7BA
:104F700067FC6268010E0302500818187141F0E7DF
:104F8000E1694FF6EF7881422ED1092DD2D200E0AF
:104F900047E0DFE805F006091F05220505052500A5
:104FA000C8E7FDF729FC01E0FDF738FC4100606827
:104FB00001EB5001B1FBF0F080B2A0F110014145CE
:104FC000B8D84FF6F0710140C0F3420001432068A9
:104FD000C16026E025496068EAE7FDF731FCE5E7B6
:104FE0004FF480316068E3E7092DA3D2DFE805F0D4
:104FF00006091E052205050525009BE7FDF7FCFBBC
:1050000001E0FDF70BFC0146606801EB500100BFB9
:10501000B1FBF0F080B2A0F1100141458AD82168BF
:10502000C860266638466666BDE8F081606803EBB6
:105030005001EDE7FDF704FCE5E7616800EB510086
:10504000B0FBF1F0E6E7000000800040F369FFEFFD
:105050000038014000100240004400400048004079
:105060000024F400FFFC0F00000024F40048E801D5
:105070002DE9F041984617460E460446069D1DE070
:10508000681C1BD02DB1FCF7BFFDA0EB0800A842A7
:1050900014D92068016821F4D0710160206881680A
:1050A00021F001018160202084F8710084F87200F1
:1050B000002084F870000320BDE8F0812068C069FA
:1050C00036EA000004D00020B842D9D00020F3E72F
:1050D0000120F9E770B54FF480544FF0904500225D
:1050E00021462846FCF78AFD0A4E01221146304629
:1050F000FCF784FD08480AF00FFC002221462846F0
:10510000FCF77CFD3046BDE8704000220121FCF731
:1051100075BD000000040048F049020070B50D485C
:10512000FEF7EEF900240C4D02E0641CAC4204D8FA
:105130000848FEF7E0F92028F7D1002402E0641CBB
:10514000AC4206D8012205490248FEF755FB00286B
:10515000F5D170BD8C070020FFFF01000600002084
:1051600070B50D48FEF7CCF900240C4D02E0641C2C
:10517000AC4204D80848FEF7BEF92028F7D1002435
:1051800002E0641CAC4206D8012205490248FEF741
:1051900033FB0028F5D170BD04080020FFFF01009B
:1051A00005000020FEE70000F0B5204C87B0A06DA0
:1051B00040F40030A065A06D022500F40030059099
:1051C0000C20CDE9000502AA0326072782E8E000AB
:1051D00069464FF09040FCF745FC0022114626201E
:1051E000FCF7EEFF2620FCF7E0FFFFF723F8A06DA9
:1051F00040F48020A065A06D02AA00F480200590F4
:10520000B002CDE9000582E8E00069460848FCF7F5
:1052100029FC002211462720FCF7D2FF2720FCF7AB
:10522000C4FFFFF72FF807B0F0BD000000100240E8
:105230000008004810B50446FEF736FD782000F05F
:105240001BF8002000F018F8204600F015F8BDE823
:105250001040FEF749BD10B50446FEF725FD782045
:1052600000F00AF8402000F007F8204600F004F8AB
:10527000BDE81040FEF738BD70B586B00546FFF7B3
:10528000B7F9224E0024280601D5012200E00022B1
:1052900002213046FCF7B2FC6806050E00BF012271
:1052A00011463046FCF7AAFC00BF00BF00220121D6
:1052B0003046FCF7A3FC641CE4B2082CE3D30122C3
:1052C00002213046FCF79AFC00BF00BF022000908C
:1052D000002001900120029003200390694630468F
:1052E000FCF7C0FB012211463046FCF787FC00BFEB
:1052F00000BF02213046FCF77CFC0446002201215D
:105300003046FCF77BFC06B0204670BD0008004824
:10531000704700002DE9F0410C4F0578441C4FF414
:105320008056002231463846FCF768FC2846FFF7D5
:1053300071F90020FFF76EF9054601223146384623
:10534000FCF75CFC2570BDE8F0810000000400481B
:105350002DE9F0410B4F047845784FF48056002238
:1053600031463846FCF74AFC2046FFF753F92846F9
:10537000FFF750F931463846BDE8F0410122FCF70D
:105380003DBC0000000400480FB4054B10B503A954
:10539000044A029800F02CF810BC5DF814FB0000E1
:1053A00091A50008BC0000200FB4084B10B504A95B
:1053B00002AA039800F01CF8044602A9002000F09D
:1053C0004BFA204610BC5DF814FB00005958000849
:1053D00002E008C8121F08C1002AFAD170477047BE
:1053E000002001E001C1121F002AFBD1704700001C
:1053F0002DE9FF4F8DB00F460546002606E0252813
:105400000BD0DDE90F1290476D1C761C2878002820
:10541000F5D111B0304600F0F3B90024A246A14600
:105420000122EC4900E0044315F8013F203B02FA59
:1054300003F00842F7D128782A2810D06FF02F0205
:105440002878A0F13001092914D80AEB8A0102EB6F
:10545000410144F0020400EB010A6D1CF0E701CFAA
:105460005FEA000A03D544F40054CAF1000A44F08C
:1054700002046D1C28782E2817D115F8010F44F06E
:1054800004042A280ED06FF02F022878A0F13001F2
:1054900009290AD809EB890102EB410100EB010956
:1054A0006D1CF2E757F8049B6D1C28786C280FD010
:1054B00006DC4C2817D068280DD06A2814D104E0E7
:1054C000742810D07A280FD10DE044F400140AE0BB
:1054D00044F4801401E044F440146978814202D11C
:1054E00004F580146D1C6D1C2A786E2A1FD00CDC0C
:1054F000632A31D004DC002A8BD0582A11D1A3E0D2
:10550000642A68D0692A0CD165E0732A2ED004DCA5
:105510006F2A73D0702A04D19BE0752A6FD0782A45
:105520006ED01046DDE90F129047761C50E1C4F3AF
:105530000250022806D0032809D0042801CF09D040
:10554000066045E101CFF117C0E9006140E101CFFC
:1055500006803DE106703BE117F8040B8DF8000072
:1055600000208DF80100EB46012003E057F804BB52
:105570004FF0FF3061074FF0000102D40DE008F159
:105580000101884649450FDA8045F8DB1BF8081011
:105590000029F4D108E008F1010188468142FADBD4
:1055A0001BF808100029F6D1DDE90F23AAEB08004B
:1055B0008146214600F039F9304400EB080604E04A
:1055C000DDE90F121BF8010B9047B8F10108F7D283
:1055D00021464846F7E00A21C4F302534FF0000B7E
:1055E0000891022B04D001CFC117032B09D00AE088
:1055F000FF1D27F00707F7E8020108E032E01FE08F
:1056000020E000B2C117042B01D140B2C117031E24
:1056100071F1000307DA4FF0000CD0EB0C006CEBDB
:1056200001012D2302E0230504D52B238DF824301E
:10563000012303E0E30701D02023F7E7984658E071
:105640000A2110E010210EE010204FF0000B08900E
:105650000CE010214FF0000B44F004044FF0080957
:10566000089103E008214FF0000B0891C4F30253A6
:10567000022B04D001CF0021032B06D006E0FF1D32
:1056800027F00707F7E8020103E080B2042B00D1FE
:10569000C0B24FF0000823072BD5702A07D0DDF8E1
:1056A00020C08CF0100C5CEA0B0C05D00EE04023FF
:1056B0008DF82430012308E050EA010306D030239E
:1056C0008DF824308DF8252002239846DDF820C07F
:1056D0008CF0080C5CEA0B0C0BD150EA010301D1F1
:1056E000630706D530238DF824304FF00108A9F167
:1056F0000109582A04D038A20B9208AA0A920BE09A
:105700003AA2F9E75B46089AFAF75CFD0B9B9B5CB3
:105710000A9A521E0A92137050EA0102F2D10A98B4
:10572000ADEB000000F1200B600702D524F48034BB
:1057300001E04FF00109D94502DDA9EB0B0000E0C3
:10574000002000EB0B0141440890AAEB010AE003A2
:1057500006D4DDE90F232146504600F066F80644E2
:105760004FF0000908E009A911F80900DDE90F125E
:10577000904709F10109761CC145F4DBE0030CD523
:10578000DDE90F232146504600F04FF8064404E0BF
:10579000DDE90F1230209047761C0899481E0890CA
:1057A0000029F5DC08E00A980A990078491C0A915A
:1057B000DDE90F129047761CBBF10001ABF1010B44
:1057C000F1DC21465046DDE90F2300F01CF80644C9
:1057D0006D1C1BE609280100303132333435363771
:1057E000383961626364656600000000303132332D
:1057F00034353637383941424344454600000000CD
:1058000030BCBDE8C08F2DE9F041044600251E469E
:105810001746880404D405E039462020B0476D1CA3
:10582000641EF9D52846BDE8F0812DE9F041044613
:1058300000251E469046C80301D5302700E02027EA
:10584000880404D505E041463846B0476D1C641E07
:10585000F9D52846BDE8F0810A68531C0B6010702A
:10586000704700002DE9F04F8A4F81468DB078785F
:1058700001287DD1884800780028FAD100257D7064
:1058800040F2C513854A86A18DA0FFF77DFD3978CA
:105890008FA0FFF779FD914E40F6340290483168B1
:1058A00009F0BCFFDFF83CA20E228F48DAF80010A6
:1058B00009F0B4FF397832680020B346C0EBC0036A
:1058C00003EB4306B31893F804C0BCF1000F7DD17D
:1058D00093F803C08C450FD100240BE003EB040CBC
:1058E00007EB04089CF805C098F80280C44503D172
:1058F000641CE4B2A142F1D8A142E8D1C0EBC000DF
:1059000000EB400010445C46817889F80010DBF819
:105910000000825D032000F039FCDAF800004289C3
:10592000642A00D145814189A346491C4181C8B2FE
:105930000090206899F800200323805D01210AF07F
:105940008FF86A4C41F6C8126948216809F066FF71
:105950000DF026F8206801210022477807EB471850
:1059600000F8181063496448FDF73AFA002200E095
:105970008EE062496048FDF711FA5E4890F802C077
:10598000437802785D4881788DE80E104378C278BC
:105990005BA104A8FFF708FD61480DF1100A037828
:1059A000CDF800A02168002B01EB48005BD04FF43C
:1059B0007A625CA1801CFFF7F7FC632F57D0206848
:1059C0007F1CF9B24278521C427000E053E0DFF8CD
:1059D0001481D8F800008089F0B101EB41122168F0
:1059E00001204FF0030C01F8120099F80070CDF877
:1059F00000C0CDF80CA0CDE90170DBF80000835D9C
:105A000001EB42004FF47A724AA1801CFFF7CCFCF4
:105A100021684878401C487021684878632800D97C
:105A20004D7041F6C812324809F076FE484809F038
:105A300073FF0820FCF7AEFBFFF74CFB45494FF620
:105A4000FF7008600820FCF7B0FB2E2009F080FCF6
:105A500041480570D8F80000007A09F079FC002070
:105A60000DB000F07DB801234FF4FA62A1E7206881
:105A700000214570A9E7401CC0B26428FFF41EAFA6
:105A8000292009F065FC00F01FFA344809F044FFB2
:105A90000120E5E7180E0020010000204F8C0108CE
:105AA0002E2E5C557365725C4170706C6963617415
:105AB000696F6E5C7372635C6D656E752E6300005A
:105AC0005B25733A202025733A2025645D20000071
:105AD000206C656E3A2564200D0A000060000020ED
